{
  "address": "0x1e13Fa3Fb9351174aD520f2F3ad35042d682A906",
  "abi": [
    {
      "inputs": [],
      "stateMutability": "nonpayable",
      "type": "constructor"
    },
    {
      "anonymous": false,
      "inputs": [
        {
          "indexed": false,
          "internalType": "string",
          "name": "action",
          "type": "string"
        },
        {
          "indexed": false,
          "internalType": "bool",
          "name": "pauseState",
          "type": "bool"
        }
      ],
      "name": "ActionPaused",
      "type": "event"
    },
    {
      "anonymous": false,
      "inputs": [
        {
          "indexed": false,
          "internalType": "contract JToken",
          "name": "jToken",
          "type": "address"
        },
        {
          "indexed": false,
          "internalType": "string",
          "name": "action",
          "type": "string"
        },
        {
          "indexed": false,
          "internalType": "bool",
          "name": "pauseState",
          "type": "bool"
        }
      ],
      "name": "ActionPaused",
      "type": "event"
    },
    {
      "anonymous": false,
      "inputs": [
        {
          "indexed": true,
          "internalType": "address",
          "name": "contributor",
          "type": "address"
        },
        {
          "indexed": false,
          "internalType": "uint256",
          "name": "newSpeed",
          "type": "uint256"
        }
      ],
      "name": "ContributorJLendSpeedUpdated",
      "type": "event"
    },
    {
      "anonymous": false,
      "inputs": [
        {
          "indexed": true,
          "internalType": "contract JToken",
          "name": "jToken",
          "type": "address"
        },
        {
          "indexed": true,
          "internalType": "address",
          "name": "borrower",
          "type": "address"
        },
        {
          "indexed": false,
          "internalType": "uint256",
          "name": "jLendDelta",
          "type": "uint256"
        },
        {
          "indexed": false,
          "internalType": "uint256",
          "name": "jLendBorrowIndex",
          "type": "uint256"
        }
      ],
      "name": "DistributedBorrowerJLend",
      "type": "event"
    },
    {
      "anonymous": false,
      "inputs": [
        {
          "indexed": true,
          "internalType": "contract JToken",
          "name": "jToken",
          "type": "address"
        },
        {
          "indexed": true,
          "internalType": "address",
          "name": "supplier",
          "type": "address"
        },
        {
          "indexed": false,
          "internalType": "uint256",
          "name": "jLendDelta",
          "type": "uint256"
        },
        {
          "indexed": false,
          "internalType": "uint256",
          "name": "jLendSupplyIndex",
          "type": "uint256"
        }
      ],
      "name": "DistributedSupplierJLend",
      "type": "event"
    },
    {
      "anonymous": false,
      "inputs": [
        {
          "indexed": false,
          "internalType": "uint256",
          "name": "error",
          "type": "uint256"
        },
        {
          "indexed": false,
          "internalType": "uint256",
          "name": "info",
          "type": "uint256"
        },
        {
          "indexed": false,
          "internalType": "uint256",
          "name": "detail",
          "type": "uint256"
        }
      ],
      "name": "Failure",
      "type": "event"
    },
    {
      "anonymous": false,
      "inputs": [
        {
          "indexed": true,
          "internalType": "address",
          "name": "user",
          "type": "address"
        },
        {
          "indexed": false,
          "internalType": "uint256",
          "name": "oldJLendAccrued",
          "type": "uint256"
        },
        {
          "indexed": false,
          "internalType": "uint256",
          "name": "newJLendAccrued",
          "type": "uint256"
        }
      ],
      "name": "JLendAccruedAdjusted",
      "type": "event"
    },
    {
      "anonymous": false,
      "inputs": [
        {
          "indexed": true,
          "internalType": "contract JToken",
          "name": "jToken",
          "type": "address"
        },
        {
          "indexed": false,
          "internalType": "uint256",
          "name": "newSpeed",
          "type": "uint256"
        }
      ],
      "name": "JLendBorrowSpeedUpdated",
      "type": "event"
    },
    {
      "anonymous": false,
      "inputs": [
        {
          "indexed": false,
          "internalType": "address",
          "name": "recipient",
          "type": "address"
        },
        {
          "indexed": false,
          "internalType": "uint256",
          "name": "amount",
          "type": "uint256"
        }
      ],
      "name": "JLendGranted",
      "type": "event"
    },
    {
      "anonymous": false,
      "inputs": [
        {
          "indexed": true,
          "internalType": "address",
          "name": "user",
          "type": "address"
        },
        {
          "indexed": false,
          "internalType": "uint256",
          "name": "oldJLendReceivable",
          "type": "uint256"
        },
        {
          "indexed": false,
          "internalType": "uint256",
          "name": "newJLendReceivable",
          "type": "uint256"
        }
      ],
      "name": "JLendReceivableUpdated",
      "type": "event"
    },
    {
      "anonymous": false,
      "inputs": [
        {
          "indexed": true,
          "internalType": "contract JToken",
          "name": "jToken",
          "type": "address"
        },
        {
          "indexed": false,
          "internalType": "uint256",
          "name": "newSpeed",
          "type": "uint256"
        }
      ],
      "name": "JLendSupplySpeedUpdated",
      "type": "event"
    },
    {
      "anonymous": false,
      "inputs": [
        {
          "indexed": false,
          "internalType": "contract JToken",
          "name": "jToken",
          "type": "address"
        },
        {
          "indexed": false,
          "internalType": "address",
          "name": "account",
          "type": "address"
        }
      ],
      "name": "MarketEntered",
      "type": "event"
    },
    {
      "anonymous": false,
      "inputs": [
        {
          "indexed": false,
          "internalType": "contract JToken",
          "name": "jToken",
          "type": "address"
        },
        {
          "indexed": false,
          "internalType": "address",
          "name": "account",
          "type": "address"
        }
      ],
      "name": "MarketExited",
      "type": "event"
    },
    {
      "anonymous": false,
      "inputs": [
        {
          "indexed": false,
          "internalType": "contract JToken",
          "name": "jToken",
          "type": "address"
        }
      ],
      "name": "MarketListed",
      "type": "event"
    },
    {
      "anonymous": false,
      "inputs": [
        {
          "indexed": true,
          "internalType": "contract JToken",
          "name": "jToken",
          "type": "address"
        },
        {
          "indexed": false,
          "internalType": "uint256",
          "name": "newBorrowCap",
          "type": "uint256"
        }
      ],
      "name": "NewBorrowCap",
      "type": "event"
    },
    {
      "anonymous": false,
      "inputs": [
        {
          "indexed": false,
          "internalType": "address",
          "name": "oldBorrowCapGuardian",
          "type": "address"
        },
        {
          "indexed": false,
          "internalType": "address",
          "name": "newBorrowCapGuardian",
          "type": "address"
        }
      ],
      "name": "NewBorrowCapGuardian",
      "type": "event"
    },
    {
      "anonymous": false,
      "inputs": [
        {
          "indexed": false,
          "internalType": "uint256",
          "name": "oldCloseFactorMantissa",
          "type": "uint256"
        },
        {
          "indexed": false,
          "internalType": "uint256",
          "name": "newCloseFactorMantissa",
          "type": "uint256"
        }
      ],
      "name": "NewCloseFactor",
      "type": "event"
    },
    {
      "anonymous": false,
      "inputs": [
        {
          "indexed": false,
          "internalType": "contract JToken",
          "name": "jToken",
          "type": "address"
        },
        {
          "indexed": false,
          "internalType": "uint256",
          "name": "oldCollateralFactorMantissa",
          "type": "uint256"
        },
        {
          "indexed": false,
          "internalType": "uint256",
          "name": "newCollateralFactorMantissa",
          "type": "uint256"
        }
      ],
      "name": "NewCollateralFactor",
      "type": "event"
    },
    {
      "anonymous": false,
      "inputs": [
        {
          "indexed": false,
          "internalType": "uint256",
          "name": "oldLiquidationIncentiveMantissa",
          "type": "uint256"
        },
        {
          "indexed": false,
          "internalType": "uint256",
          "name": "newLiquidationIncentiveMantissa",
          "type": "uint256"
        }
      ],
      "name": "NewLiquidationIncentive",
      "type": "event"
    },
    {
      "anonymous": false,
      "inputs": [
        {
          "indexed": false,
          "internalType": "address",
          "name": "oldPauseGuardian",
          "type": "address"
        },
        {
          "indexed": false,
          "internalType": "address",
          "name": "newPauseGuardian",
          "type": "address"
        }
      ],
      "name": "NewPauseGuardian",
      "type": "event"
    },
    {
      "anonymous": false,
      "inputs": [
        {
          "indexed": false,
          "internalType": "contract PriceOracle",
          "name": "oldPriceOracle",
          "type": "address"
        },
        {
          "indexed": false,
          "internalType": "contract PriceOracle",
          "name": "newPriceOracle",
          "type": "address"
        }
      ],
      "name": "NewPriceOracle",
      "type": "event"
    },
    {
      "inputs": [
        {
          "internalType": "contract Unitroller",
          "name": "unitroller",
          "type": "address"
        }
      ],
      "name": "_become",
      "outputs": [],
      "stateMutability": "nonpayable",
      "type": "function"
    },
    {
      "inputs": [],
      "name": "_borrowGuardianPaused",
      "outputs": [
        {
          "internalType": "bool",
          "name": "",
          "type": "bool"
        }
      ],
      "stateMutability": "view",
      "type": "function"
    },
    {
      "inputs": [
        {
          "internalType": "address",
          "name": "recipient",
          "type": "address"
        },
        {
          "internalType": "uint256",
          "name": "amount",
          "type": "uint256"
        }
      ],
      "name": "_grantJLend",
      "outputs": [],
      "stateMutability": "nonpayable",
      "type": "function"
    },
    {
      "inputs": [],
      "name": "_mintGuardianPaused",
      "outputs": [
        {
          "internalType": "bool",
          "name": "",
          "type": "bool"
        }
      ],
      "stateMutability": "view",
      "type": "function"
    },
    {
      "inputs": [
        {
          "internalType": "address",
          "name": "newBorrowCapGuardian",
          "type": "address"
        }
      ],
      "name": "_setBorrowCapGuardian",
      "outputs": [],
      "stateMutability": "nonpayable",
      "type": "function"
    },
    {
      "inputs": [
        {
          "internalType": "contract JToken",
          "name": "jToken",
          "type": "address"
        },
        {
          "internalType": "bool",
          "name": "state",
          "type": "bool"
        }
      ],
      "name": "_setBorrowPaused",
      "outputs": [
        {
          "internalType": "bool",
          "name": "",
          "type": "bool"
        }
      ],
      "stateMutability": "nonpayable",
      "type": "function"
    },
    {
      "inputs": [
        {
          "internalType": "uint256",
          "name": "newCloseFactorMantissa",
          "type": "uint256"
        }
      ],
      "name": "_setCloseFactor",
      "outputs": [
        {
          "internalType": "uint256",
          "name": "",
          "type": "uint256"
        }
      ],
      "stateMutability": "nonpayable",
      "type": "function"
    },
    {
      "inputs": [
        {
          "internalType": "contract JToken",
          "name": "jToken",
          "type": "address"
        },
        {
          "internalType": "uint256",
          "name": "newCollateralFactorMantissa",
          "type": "uint256"
        }
      ],
      "name": "_setCollateralFactor",
      "outputs": [
        {
          "internalType": "uint256",
          "name": "",
          "type": "uint256"
        }
      ],
      "stateMutability": "nonpayable",
      "type": "function"
    },
    {
      "inputs": [
        {
          "internalType": "address",
          "name": "contributor",
          "type": "address"
        },
        {
          "internalType": "uint256",
          "name": "jLendSpeed",
          "type": "uint256"
        }
      ],
      "name": "_setContributorJLendSpeed",
      "outputs": [],
      "stateMutability": "nonpayable",
      "type": "function"
    },
    {
      "inputs": [
        {
          "internalType": "contract JToken[]",
          "name": "jTokens",
          "type": "address[]"
        },
        {
          "internalType": "uint256[]",
          "name": "supplySpeeds",
          "type": "uint256[]"
        },
        {
          "internalType": "uint256[]",
          "name": "borrowSpeeds",
          "type": "uint256[]"
        }
      ],
      "name": "_setJLendSpeeds",
      "outputs": [],
      "stateMutability": "nonpayable",
      "type": "function"
    },
    {
      "inputs": [
        {
          "internalType": "uint256",
          "name": "newLiquidationIncentiveMantissa",
          "type": "uint256"
        }
      ],
      "name": "_setLiquidationIncentive",
      "outputs": [
        {
          "internalType": "uint256",
          "name": "",
          "type": "uint256"
        }
      ],
      "stateMutability": "nonpayable",
      "type": "function"
    },
    {
      "inputs": [
        {
          "internalType": "contract JToken[]",
          "name": "jTokens",
          "type": "address[]"
        },
        {
          "internalType": "uint256[]",
          "name": "newBorrowCaps",
          "type": "uint256[]"
        }
      ],
      "name": "_setMarketBorrowCaps",
      "outputs": [],
      "stateMutability": "nonpayable",
      "type": "function"
    },
    {
      "inputs": [
        {
          "internalType": "contract JToken",
          "name": "jToken",
          "type": "address"
        },
        {
          "internalType": "bool",
          "name": "state",
          "type": "bool"
        }
      ],
      "name": "_setMintPaused",
      "outputs": [
        {
          "internalType": "bool",
          "name": "",
          "type": "bool"
        }
      ],
      "stateMutability": "nonpayable",
      "type": "function"
    },
    {
      "inputs": [
        {
          "internalType": "address",
          "name": "newPauseGuardian",
          "type": "address"
        }
      ],
      "name": "_setPauseGuardian",
      "outputs": [
        {
          "internalType": "uint256",
          "name": "",
          "type": "uint256"
        }
      ],
      "stateMutability": "nonpayable",
      "type": "function"
    },
    {
      "inputs": [
        {
          "internalType": "contract PriceOracle",
          "name": "newOracle",
          "type": "address"
        }
      ],
      "name": "_setPriceOracle",
      "outputs": [
        {
          "internalType": "uint256",
          "name": "",
          "type": "uint256"
        }
      ],
      "stateMutability": "nonpayable",
      "type": "function"
    },
    {
      "inputs": [
        {
          "internalType": "bool",
          "name": "state",
          "type": "bool"
        }
      ],
      "name": "_setSeizePaused",
      "outputs": [
        {
          "internalType": "bool",
          "name": "",
          "type": "bool"
        }
      ],
      "stateMutability": "nonpayable",
      "type": "function"
    },
    {
      "inputs": [
        {
          "internalType": "bool",
          "name": "state",
          "type": "bool"
        }
      ],
      "name": "_setTransferPaused",
      "outputs": [
        {
          "internalType": "bool",
          "name": "",
          "type": "bool"
        }
      ],
      "stateMutability": "nonpayable",
      "type": "function"
    },
    {
      "inputs": [
        {
          "internalType": "contract JToken",
          "name": "jToken",
          "type": "address"
        }
      ],
      "name": "_supportMarket",
      "outputs": [
        {
          "internalType": "uint256",
          "name": "",
          "type": "uint256"
        }
      ],
      "stateMutability": "nonpayable",
      "type": "function"
    },
    {
      "inputs": [
        {
          "internalType": "address",
          "name": "",
          "type": "address"
        },
        {
          "internalType": "uint256",
          "name": "",
          "type": "uint256"
        }
      ],
      "name": "accountAssets",
      "outputs": [
        {
          "internalType": "contract JToken",
          "name": "",
          "type": "address"
        }
      ],
      "stateMutability": "view",
      "type": "function"
    },
    {
      "inputs": [],
      "name": "admin",
      "outputs": [
        {
          "internalType": "address",
          "name": "",
          "type": "address"
        }
      ],
      "stateMutability": "view",
      "type": "function"
    },
    {
      "inputs": [
        {
          "internalType": "uint256",
          "name": "",
          "type": "uint256"
        }
      ],
      "name": "allMarkets",
      "outputs": [
        {
          "internalType": "contract JToken",
          "name": "",
          "type": "address"
        }
      ],
      "stateMutability": "view",
      "type": "function"
    },
    {
      "inputs": [
        {
          "internalType": "address",
          "name": "jToken",
          "type": "address"
        },
        {
          "internalType": "address",
          "name": "borrower",
          "type": "address"
        },
        {
          "internalType": "uint256",
          "name": "borrowAmount",
          "type": "uint256"
        }
      ],
      "name": "borrowAllowed",
      "outputs": [
        {
          "internalType": "uint256",
          "name": "",
          "type": "uint256"
        }
      ],
      "stateMutability": "nonpayable",
      "type": "function"
    },
    {
      "inputs": [],
      "name": "borrowCapGuardian",
      "outputs": [
        {
          "internalType": "address",
          "name": "",
          "type": "address"
        }
      ],
      "stateMutability": "view",
      "type": "function"
    },
    {
      "inputs": [
        {
          "internalType": "address",
          "name": "",
          "type": "address"
        }
      ],
      "name": "borrowCaps",
      "outputs": [
        {
          "internalType": "uint256",
          "name": "",
          "type": "uint256"
        }
      ],
      "stateMutability": "view",
      "type": "function"
    },
    {
      "inputs": [
        {
          "internalType": "address",
          "name": "",
          "type": "address"
        }
      ],
      "name": "borrowGuardianPaused",
      "outputs": [
        {
          "internalType": "bool",
          "name": "",
          "type": "bool"
        }
      ],
      "stateMutability": "view",
      "type": "function"
    },
    {
      "inputs": [
        {
          "internalType": "address",
          "name": "jToken",
          "type": "address"
        },
        {
          "internalType": "address",
          "name": "borrower",
          "type": "address"
        },
        {
          "internalType": "uint256",
          "name": "borrowAmount",
          "type": "uint256"
        }
      ],
      "name": "borrowVerify",
      "outputs": [],
      "stateMutability": "nonpayable",
      "type": "function"
    },
    {
      "inputs": [
        {
          "internalType": "address",
          "name": "account",
          "type": "address"
        },
        {
          "internalType": "contract JToken",
          "name": "jToken",
          "type": "address"
        }
      ],
      "name": "checkMembership",
      "outputs": [
        {
          "internalType": "bool",
          "name": "",
          "type": "bool"
        }
      ],
      "stateMutability": "view",
      "type": "function"
    },
    {
      "inputs": [
        {
          "internalType": "address",
          "name": "holder",
          "type": "address"
        }
      ],
      "name": "claimJLend",
      "outputs": [],
      "stateMutability": "nonpayable",
      "type": "function"
    },
    {
      "inputs": [
        {
          "internalType": "address[]",
          "name": "holders",
          "type": "address[]"
        },
        {
          "internalType": "contract JToken[]",
          "name": "jTokens",
          "type": "address[]"
        },
        {
          "internalType": "bool",
          "name": "borrowers",
          "type": "bool"
        },
        {
          "internalType": "bool",
          "name": "suppliers",
          "type": "bool"
        }
      ],
      "name": "claimJLend",
      "outputs": [],
      "stateMutability": "nonpayable",
      "type": "function"
    },
    {
      "inputs": [
        {
          "internalType": "address",
          "name": "holder",
          "type": "address"
        },
        {
          "internalType": "contract JToken[]",
          "name": "jTokens",
          "type": "address[]"
        }
      ],
      "name": "claimJLend",
      "outputs": [],
      "stateMutability": "nonpayable",
      "type": "function"
    },
    {
      "inputs": [],
      "name": "closeFactorMantissa",
      "outputs": [
        {
          "internalType": "uint256",
          "name": "",
          "type": "uint256"
        }
      ],
      "stateMutability": "view",
      "type": "function"
    },
    {
      "inputs": [],
      "name": "comptrollerImplementation",
      "outputs": [
        {
          "internalType": "address",
          "name": "",
          "type": "address"
        }
      ],
      "stateMutability": "view",
      "type": "function"
    },
    {
      "inputs": [
        {
          "internalType": "address[]",
          "name": "jTokens",
          "type": "address[]"
        }
      ],
      "name": "enterMarkets",
      "outputs": [
        {
          "internalType": "uint256[]",
          "name": "",
          "type": "uint256[]"
        }
      ],
      "stateMutability": "nonpayable",
      "type": "function"
    },
    {
      "inputs": [
        {
          "internalType": "address",
          "name": "jTokenAddress",
          "type": "address"
        }
      ],
      "name": "exitMarket",
      "outputs": [
        {
          "internalType": "uint256",
          "name": "",
          "type": "uint256"
        }
      ],
      "stateMutability": "nonpayable",
      "type": "function"
    },
    {
      "inputs": [
        {
          "internalType": "address[]",
          "name": "affectedUsers",
          "type": "address[]"
        },
        {
          "internalType": "uint256[]",
          "name": "amounts",
          "type": "uint256[]"
        }
      ],
      "name": "fixBadAccruals",
      "outputs": [],
      "stateMutability": "nonpayable",
      "type": "function"
    },
    {
      "inputs": [
        {
          "internalType": "address",
          "name": "account",
          "type": "address"
        }
      ],
      "name": "getAccountLiquidity",
      "outputs": [
        {
          "internalType": "uint256",
          "name": "",
          "type": "uint256"
        },
        {
          "internalType": "uint256",
          "name": "",
          "type": "uint256"
        },
        {
          "internalType": "uint256",
          "name": "",
          "type": "uint256"
        }
      ],
      "stateMutability": "view",
      "type": "function"
    },
    {
      "inputs": [],
      "name": "getAllMarkets",
      "outputs": [
        {
          "internalType": "contract JToken[]",
          "name": "",
          "type": "address[]"
        }
      ],
      "stateMutability": "view",
      "type": "function"
    },
    {
      "inputs": [
        {
          "internalType": "address",
          "name": "account",
          "type": "address"
        }
      ],
      "name": "getAssetsIn",
      "outputs": [
        {
          "internalType": "contract JToken[]",
          "name": "",
          "type": "address[]"
        }
      ],
      "stateMutability": "view",
      "type": "function"
    },
    {
      "inputs": [],
      "name": "getBlockNumber",
      "outputs": [
        {
          "internalType": "uint256",
          "name": "",
          "type": "uint256"
        }
      ],
      "stateMutability": "view",
      "type": "function"
    },
    {
      "inputs": [
        {
          "internalType": "address",
          "name": "account",
          "type": "address"
        },
        {
          "internalType": "address",
          "name": "jTokenModify",
          "type": "address"
        },
        {
          "internalType": "uint256",
          "name": "redeemTokens",
          "type": "uint256"
        },
        {
          "internalType": "uint256",
          "name": "borrowAmount",
          "type": "uint256"
        }
      ],
      "name": "getHypotheticalAccountLiquidity",
      "outputs": [
        {
          "internalType": "uint256",
          "name": "",
          "type": "uint256"
        },
        {
          "internalType": "uint256",
          "name": "",
          "type": "uint256"
        },
        {
          "internalType": "uint256",
          "name": "",
          "type": "uint256"
        }
      ],
      "stateMutability": "view",
      "type": "function"
    },
    {
      "inputs": [],
      "name": "getJLendAddress",
      "outputs": [
        {
          "internalType": "address",
          "name": "",
          "type": "address"
        }
      ],
      "stateMutability": "view",
      "type": "function"
    },
    {
      "inputs": [],
      "name": "isComptroller",
      "outputs": [
        {
          "internalType": "bool",
          "name": "",
          "type": "bool"
        }
      ],
      "stateMutability": "view",
      "type": "function"
    },
    {
      "inputs": [
        {
          "internalType": "contract JToken",
          "name": "jToken",
          "type": "address"
        }
      ],
      "name": "isDeprecated",
      "outputs": [
        {
          "internalType": "bool",
          "name": "",
          "type": "bool"
        }
      ],
      "stateMutability": "view",
      "type": "function"
    },
    {
      "inputs": [
        {
          "internalType": "address",
          "name": "",
          "type": "address"
        }
      ],
      "name": "jLendAccrued",
      "outputs": [
        {
          "internalType": "uint256",
          "name": "",
          "type": "uint256"
        }
      ],
      "stateMutability": "view",
      "type": "function"
    },
    {
      "inputs": [
        {
          "internalType": "address",
          "name": "",
          "type": "address"
        }
      ],
      "name": "jLendBorrowSpeeds",
      "outputs": [
        {
          "internalType": "uint256",
          "name": "",
          "type": "uint256"
        }
      ],
      "stateMutability": "view",
      "type": "function"
    },
    {
      "inputs": [
        {
          "internalType": "address",
          "name": "",
          "type": "address"
        }
      ],
      "name": "jLendBorrowState",
      "outputs": [
        {
          "internalType": "uint224",
          "name": "index",
          "type": "uint224"
        },
        {
          "internalType": "uint32",
          "name": "block",
          "type": "uint32"
        }
      ],
      "stateMutability": "view",
      "type": "function"
    },
    {
      "inputs": [
        {
          "internalType": "address",
          "name": "",
          "type": "address"
        },
        {
          "internalType": "address",
          "name": "",
          "type": "address"
        }
      ],
      "name": "jLendBorrowerIndex",
      "outputs": [
        {
          "internalType": "uint256",
          "name": "",
          "type": "uint256"
        }
      ],
      "stateMutability": "view",
      "type": "function"
    },
    {
      "inputs": [
        {
          "internalType": "address",
          "name": "",
          "type": "address"
        }
      ],
      "name": "jLendContributorSpeeds",
      "outputs": [
        {
          "internalType": "uint256",
          "name": "",
          "type": "uint256"
        }
      ],
      "stateMutability": "view",
      "type": "function"
    },
    {
      "inputs": [],
      "name": "jLendInitialIndex",
      "outputs": [
        {
          "internalType": "uint224",
          "name": "",
          "type": "uint224"
        }
      ],
      "stateMutability": "view",
      "type": "function"
    },
    {
      "inputs": [],
      "name": "jLendRate",
      "outputs": [
        {
          "internalType": "uint256",
          "name": "",
          "type": "uint256"
        }
      ],
      "stateMutability": "view",
      "type": "function"
    },
    {
      "inputs": [
        {
          "internalType": "address",
          "name": "",
          "type": "address"
        }
      ],
      "name": "jLendReceivable",
      "outputs": [
        {
          "internalType": "uint256",
          "name": "",
          "type": "uint256"
        }
      ],
      "stateMutability": "view",
      "type": "function"
    },
    {
      "inputs": [
        {
          "internalType": "address",
          "name": "",
          "type": "address"
        }
      ],
      "name": "jLendSpeeds",
      "outputs": [
        {
          "internalType": "uint256",
          "name": "",
          "type": "uint256"
        }
      ],
      "stateMutability": "view",
      "type": "function"
    },
    {
      "inputs": [
        {
          "internalType": "address",
          "name": "",
          "type": "address"
        },
        {
          "internalType": "address",
          "name": "",
          "type": "address"
        }
      ],
      "name": "jLendSupplierIndex",
      "outputs": [
        {
          "internalType": "uint256",
          "name": "",
          "type": "uint256"
        }
      ],
      "stateMutability": "view",
      "type": "function"
    },
    {
      "inputs": [
        {
          "internalType": "address",
          "name": "",
          "type": "address"
        }
      ],
      "name": "jLendSupplySpeeds",
      "outputs": [
        {
          "internalType": "uint256",
          "name": "",
          "type": "uint256"
        }
      ],
      "stateMutability": "view",
      "type": "function"
    },
    {
      "inputs": [
        {
          "internalType": "address",
          "name": "",
          "type": "address"
        }
      ],
      "name": "jLendSupplyState",
      "outputs": [
        {
          "internalType": "uint224",
          "name": "index",
          "type": "uint224"
        },
        {
          "internalType": "uint32",
          "name": "block",
          "type": "uint32"
        }
      ],
      "stateMutability": "view",
      "type": "function"
    },
    {
      "inputs": [
        {
          "internalType": "address",
          "name": "",
          "type": "address"
        }
      ],
      "name": "lastContributorBlock",
      "outputs": [
        {
          "internalType": "uint256",
          "name": "",
          "type": "uint256"
        }
      ],
      "stateMutability": "view",
      "type": "function"
    },
    {
      "inputs": [
        {
          "internalType": "address",
          "name": "jTokenBorrowed",
          "type": "address"
        },
        {
          "internalType": "address",
          "name": "jTokenCollateral",
          "type": "address"
        },
        {
          "internalType": "address",
          "name": "liquidator",
          "type": "address"
        },
        {
          "internalType": "address",
          "name": "borrower",
          "type": "address"
        },
        {
          "internalType": "uint256",
          "name": "repayAmount",
          "type": "uint256"
        }
      ],
      "name": "liquidateBorrowAllowed",
      "outputs": [
        {
          "internalType": "uint256",
          "name": "",
          "type": "uint256"
        }
      ],
      "stateMutability": "nonpayable",
      "type": "function"
    },
    {
      "inputs": [
        {
          "internalType": "address",
          "name": "jTokenBorrowed",
          "type": "address"
        },
        {
          "internalType": "address",
          "name": "jTokenCollateral",
          "type": "address"
        },
        {
          "internalType": "address",
          "name": "liquidator",
          "type": "address"
        },
        {
          "internalType": "address",
          "name": "borrower",
          "type": "address"
        },
        {
          "internalType": "uint256",
          "name": "actualRepayAmount",
          "type": "uint256"
        },
        {
          "internalType": "uint256",
          "name": "seizeTokens",
          "type": "uint256"
        }
      ],
      "name": "liquidateBorrowVerify",
      "outputs": [],
      "stateMutability": "nonpayable",
      "type": "function"
    },
    {
      "inputs": [
        {
          "internalType": "address",
          "name": "jTokenBorrowed",
          "type": "address"
        },
        {
          "internalType": "address",
          "name": "jTokenCollateral",
          "type": "address"
        },
        {
          "internalType": "uint256",
          "name": "actualRepayAmount",
          "type": "uint256"
        }
      ],
      "name": "liquidateCalculateSeizeTokens",
      "outputs": [
        {
          "internalType": "uint256",
          "name": "",
          "type": "uint256"
        },
        {
          "internalType": "uint256",
          "name": "",
          "type": "uint256"
        }
      ],
      "stateMutability": "view",
      "type": "function"
    },
    {
      "inputs": [],
      "name": "liquidationIncentiveMantissa",
      "outputs": [
        {
          "internalType": "uint256",
          "name": "",
          "type": "uint256"
        }
      ],
      "stateMutability": "view",
      "type": "function"
    },
    {
      "inputs": [
        {
          "internalType": "address",
          "name": "",
          "type": "address"
        }
      ],
      "name": "markets",
      "outputs": [
        {
          "internalType": "bool",
          "name": "isListed",
          "type": "bool"
        },
        {
          "internalType": "uint256",
          "name": "collateralFactorMantissa",
          "type": "uint256"
        },
        {
          "internalType": "bool",
          "name": "isJLended",
          "type": "bool"
        }
      ],
      "stateMutability": "view",
      "type": "function"
    },
    {
      "inputs": [],
      "name": "maxAssets",
      "outputs": [
        {
          "internalType": "uint256",
          "name": "",
          "type": "uint256"
        }
      ],
      "stateMutability": "view",
      "type": "function"
    },
    {
      "inputs": [
        {
          "internalType": "address",
          "name": "jToken",
          "type": "address"
        },
        {
          "internalType": "address",
          "name": "minter",
          "type": "address"
        },
        {
          "internalType": "uint256",
          "name": "mintAmount",
          "type": "uint256"
        }
      ],
      "name": "mintAllowed",
      "outputs": [
        {
          "internalType": "uint256",
          "name": "",
          "type": "uint256"
        }
      ],
      "stateMutability": "nonpayable",
      "type": "function"
    },
    {
      "inputs": [
        {
          "internalType": "address",
          "name": "",
          "type": "address"
        }
      ],
      "name": "mintGuardianPaused",
      "outputs": [
        {
          "internalType": "bool",
          "name": "",
          "type": "bool"
        }
      ],
      "stateMutability": "view",
      "type": "function"
    },
    {
      "inputs": [
        {
          "internalType": "address",
          "name": "jToken",
          "type": "address"
        },
        {
          "internalType": "address",
          "name": "minter",
          "type": "address"
        },
        {
          "internalType": "uint256",
          "name": "actualMintAmount",
          "type": "uint256"
        },
        {
          "internalType": "uint256",
          "name": "mintTokens",
          "type": "uint256"
        }
      ],
      "name": "mintVerify",
      "outputs": [],
      "stateMutability": "nonpayable",
      "type": "function"
    },
    {
      "inputs": [],
      "name": "oracle",
      "outputs": [
        {
          "internalType": "contract PriceOracle",
          "name": "",
          "type": "address"
        }
      ],
      "stateMutability": "view",
      "type": "function"
    },
    {
      "inputs": [],
      "name": "pauseGuardian",
      "outputs": [
        {
          "internalType": "address",
          "name": "",
          "type": "address"
        }
      ],
      "stateMutability": "view",
      "type": "function"
    },
    {
      "inputs": [],
      "name": "pendingAdmin",
      "outputs": [
        {
          "internalType": "address",
          "name": "",
          "type": "address"
        }
      ],
      "stateMutability": "view",
      "type": "function"
    },
    {
      "inputs": [],
      "name": "pendingComptrollerImplementation",
      "outputs": [
        {
          "internalType": "address",
          "name": "",
          "type": "address"
        }
      ],
      "stateMutability": "view",
      "type": "function"
    },
    {
      "inputs": [],
      "name": "proposal65FixExecuted",
      "outputs": [
        {
          "internalType": "bool",
          "name": "",
          "type": "bool"
        }
      ],
      "stateMutability": "view",
      "type": "function"
    },
    {
      "inputs": [
        {
          "internalType": "address",
          "name": "jToken",
          "type": "address"
        },
        {
          "internalType": "address",
          "name": "redeemer",
          "type": "address"
        },
        {
          "internalType": "uint256",
          "name": "redeemTokens",
          "type": "uint256"
        }
      ],
      "name": "redeemAllowed",
      "outputs": [
        {
          "internalType": "uint256",
          "name": "",
          "type": "uint256"
        }
      ],
      "stateMutability": "nonpayable",
      "type": "function"
    },
    {
      "inputs": [
        {
          "internalType": "address",
          "name": "jToken",
          "type": "address"
        },
        {
          "internalType": "address",
          "name": "redeemer",
          "type": "address"
        },
        {
          "internalType": "uint256",
          "name": "redeemAmount",
          "type": "uint256"
        },
        {
          "internalType": "uint256",
          "name": "redeemTokens",
          "type": "uint256"
        }
      ],
      "name": "redeemVerify",
      "outputs": [],
      "stateMutability": "nonpayable",
      "type": "function"
    },
    {
      "inputs": [
        {
          "internalType": "address",
          "name": "jToken",
          "type": "address"
        },
        {
          "internalType": "address",
          "name": "payer",
          "type": "address"
        },
        {
          "internalType": "address",
          "name": "borrower",
          "type": "address"
        },
        {
          "internalType": "uint256",
          "name": "repayAmount",
          "type": "uint256"
        }
      ],
      "name": "repayBorrowAllowed",
      "outputs": [
        {
          "internalType": "uint256",
          "name": "",
          "type": "uint256"
        }
      ],
      "stateMutability": "nonpayable",
      "type": "function"
    },
    {
      "inputs": [
        {
          "internalType": "address",
          "name": "jToken",
          "type": "address"
        },
        {
          "internalType": "address",
          "name": "payer",
          "type": "address"
        },
        {
          "internalType": "address",
          "name": "borrower",
          "type": "address"
        },
        {
          "internalType": "uint256",
          "name": "actualRepayAmount",
          "type": "uint256"
        },
        {
          "internalType": "uint256",
          "name": "borrowerIndex",
          "type": "uint256"
        }
      ],
      "name": "repayBorrowVerify",
      "outputs": [],
      "stateMutability": "nonpayable",
      "type": "function"
    },
    {
      "inputs": [
        {
          "internalType": "address",
          "name": "jTokenCollateral",
          "type": "address"
        },
        {
          "internalType": "address",
          "name": "jTokenBorrowed",
          "type": "address"
        },
        {
          "internalType": "address",
          "name": "liquidator",
          "type": "address"
        },
        {
          "internalType": "address",
          "name": "borrower",
          "type": "address"
        },
        {
          "internalType": "uint256",
          "name": "seizeTokens",
          "type": "uint256"
        }
      ],
      "name": "seizeAllowed",
      "outputs": [
        {
          "internalType": "uint256",
          "name": "",
          "type": "uint256"
        }
      ],
      "stateMutability": "nonpayable",
      "type": "function"
    },
    {
      "inputs": [],
      "name": "seizeGuardianPaused",
      "outputs": [
        {
          "internalType": "bool",
          "name": "",
          "type": "bool"
        }
      ],
      "stateMutability": "view",
      "type": "function"
    },
    {
      "inputs": [
        {
          "internalType": "address",
          "name": "jTokenCollateral",
          "type": "address"
        },
        {
          "internalType": "address",
          "name": "jTokenBorrowed",
          "type": "address"
        },
        {
          "internalType": "address",
          "name": "liquidator",
          "type": "address"
        },
        {
          "internalType": "address",
          "name": "borrower",
          "type": "address"
        },
        {
          "internalType": "uint256",
          "name": "seizeTokens",
          "type": "uint256"
        }
      ],
      "name": "seizeVerify",
      "outputs": [],
      "stateMutability": "nonpayable",
      "type": "function"
    },
    {
      "inputs": [
        {
          "internalType": "address",
          "name": "jToken",
          "type": "address"
        },
        {
          "internalType": "address",
          "name": "src",
          "type": "address"
        },
        {
          "internalType": "address",
          "name": "dst",
          "type": "address"
        },
        {
          "internalType": "uint256",
          "name": "transferTokens",
          "type": "uint256"
        }
      ],
      "name": "transferAllowed",
      "outputs": [
        {
          "internalType": "uint256",
          "name": "",
          "type": "uint256"
        }
      ],
      "stateMutability": "nonpayable",
      "type": "function"
    },
    {
      "inputs": [],
      "name": "transferGuardianPaused",
      "outputs": [
        {
          "internalType": "bool",
          "name": "",
          "type": "bool"
        }
      ],
      "stateMutability": "view",
      "type": "function"
    },
    {
      "inputs": [
        {
          "internalType": "address",
          "name": "jToken",
          "type": "address"
        },
        {
          "internalType": "address",
          "name": "src",
          "type": "address"
        },
        {
          "internalType": "address",
          "name": "dst",
          "type": "address"
        },
        {
          "internalType": "uint256",
          "name": "transferTokens",
          "type": "uint256"
        }
      ],
      "name": "transferVerify",
      "outputs": [],
      "stateMutability": "nonpayable",
      "type": "function"
    },
    {
      "inputs": [
        {
          "internalType": "address",
          "name": "contributor",
          "type": "address"
        }
      ],
      "name": "updateContributorRewards",
      "outputs": [],
      "stateMutability": "nonpayable",
      "type": "function"
    }
  ],
  "transactionHash": "0xd4a68bd4442e5d372566d1e17cf929136284a9bb2e448e41603ef888238eeaaf",
  "args": [],
  "numDeployments": 1,
  "solcInputHash": "d89ba6bd5d1c370bbf965df5987212b9",
  "bytecode": "0x608060405234801561001057600080fd5b50600080546001600160a01b03191633179055615430806100326000396000f3fe608060405234801561001057600080fd5b506004361061048a5760003560e01c80636d154ea511610262578063bb82aa5e11610151578063dce15449116100ce578063e875544611610092578063e875544614610c0e578063eabe7d9114610c17578063ede4edd014610c2a578063f00a7a9214610c3d578063f02350c414610c4a578063f851a44014610c6a57600080fd5b8063dce1544914610ba1578063dcfbc0c714610bb4578063dd68f89514610bc7578063e4028eee14610be7578063e6653f3d14610bfa57600080fd5b8063c488847b11610115578063c488847b14610b13578063c81fae0214610b3b578063c9327c4b14610b68578063d02f735114610b7b578063da3d454c14610b8e57600080fd5b8063bb82aa5e14610a8d578063bda19a9d14610aa0578063bdcdc25814610ac0578063bea6b8b814610ad3578063c299823814610af357600080fd5b8063929fe9a1116101df578063ac0b0bb7116101a3578063ac0b0bb714610a20578063b0772d0b14610a34578063b40bb1ac14610a3c578063b62b6f9d14610a4f578063bb249f5a14610a7a57600080fd5b8063929fe9a11461099057806394543c15146109d157806394b2294b146109e4578063a76b3fda146109ed578063abfceffc14610a0057600080fd5b80637dc0d1d0116102265780637dc0d1d0146108fa57806387f763031461090d5780638e8f294b146109215780638ebf6364146109745780638f738b771461098757600080fd5b80636d154ea5146108735780636d35bf91146108965780636e9d689f146108a4578063731f0c2b146108c4578063741b2525146108e757600080fd5b806341c728b91161037e57806352d84d1e116102fb5780635ec88c79116102bf5780635ec88c79146108195780635f5af1aa1461082c5780635fc7e71e1461083f578063607ef6c1146108525780636a56947e1461086557600080fd5b806352d84d1e1461074c57806355ee1fe11461075f5780635641b2c314610772578063567c5d25146107ce5780635c7786051461080657600080fd5b80634e79238f116103425780634e79238f146106ba5780634ef4c3e1146106e85780634fd42e17146106fb5780635157abe41461070e57806351dff9891461073957600080fd5b806341c728b91461066157806342cbb15c1461067557806347ef3b3b1461067b5780634a584432146106915780634ada90af146106b157600080fd5b806324a3d6221161040c5780632dd85f8d116103d05780632dd85f8d14610601578063317b0b7714610614578063391957d7146106275780633bcf7ec11461063a5780633c94786f1461064d57600080fd5b806324a3d6221461058e57806326782247146105a157806327b1223a146105b45780632aa49b7d146105d45780632d70db78146105ee57600080fd5b80631d504dc6116104535780631d504dc6146104fa5780631ededc911461050d57806321a89c551461052257806321af45691461055057806324008a621461057b57600080fd5b80627e3dd21461048f5780630d15daa7146104ac57806310a0a72e146104c157806316b95e8f146104d457806318c882a5146104e7575b600080fd5b610497600181565b60405190151581526020015b60405180910390f35b6104bf6104ba366004614a14565b610c7d565b005b6104bf6104cf366004614a14565b610d79565b6104bf6104e2366004614a8c565b610e70565b6104976104f5366004614b06565b611114565b6104bf610508366004614b3f565b61124d565b6104bf61051b366004614b5c565b5050505050565b610542610530366004614b3f565b600f6020526000908152604090205481565b6040519081526020016104a3565b601554610563906001600160a01b031681565b6040516001600160a01b0390911681526020016104a3565b610542610589366004614bb7565b6113cb565b600a54610563906001600160a01b031681565b600154610563906001600160a01b031681565b6105426105c2366004614b3f565b60176020526000908152604090205481565b73c00e94cb662c3520282e6f5717214004a7f26888610563565b6104976105fc366004614c08565b611489565b6104bf61060f366004614b3f565b611579565b610542610622366004614c25565b6115dd565b6104bf610635366004614b3f565b611684565b610497610648366004614b06565b61174e565b600a5461049790600160a01b900460ff1681565b6104bf61066f366004614c3e565b50505050565b43610542565b6104bf610689366004614c84565b505050505050565b61054261069f366004614b3f565b60166020526000908152604090205481565b61054260065481565b6106cd6106c8366004614c3e565b611878565b604080519384526020840192909252908201526060016104a3565b6105426106f6366004614cf2565b6118b8565b610542610709366004614c25565b611959565b61054261071c366004614d33565b601360209081526000928352604080842090915290825290205481565b6104bf610747366004614c3e565b6119b6565b61056361075a366004614c25565b611a05565b61054261076d366004614b3f565b611a2f565b6107aa610780366004614b3f565b6011602052600090815260409020546001600160e01b03811690600160e01b900463ffffffff1682565b604080516001600160e01b03909316835263ffffffff9091166020830152016104a3565b6107aa6107dc366004614b3f565b6010602052600090815260409020546001600160e01b03811690600160e01b900463ffffffff1682565b6104bf610814366004614cf2565b505050565b6106cd610827366004614b3f565b611aa8565b61054261083a366004614b3f565b611ae3565b61054261084d366004614d61565b611b5c565b6104bf610860366004614a8c565b611d2e565b6104bf61066f366004614bb7565b610497610881366004614b3f565b600c6020526000908152604090205460ff1681565b6104bf61051b366004614d61565b6105426108b2366004614b3f565b601c6020526000908152604090205481565b6104976108d2366004614b3f565b600b6020526000908152604090205460ff1681565b6104bf6108f5366004614b3f565b611f0c565b600454610563906001600160a01b031681565b600a5461049790600160b01b900460ff1681565b61095561092f366004614b3f565b60096020526000908152604090208054600182015460039092015460ff91821692911683565b60408051931515845260208401929092521515908201526060016104a3565b610497610982366004614c08565b611fb8565b610542600e5481565b61049761099e366004614d33565b6001600160a01b038082166000908152600960209081526040808320938616835260029093019052205460ff1692915050565b6104976109df366004614b3f565b61209f565b61054260075481565b6105426109fb366004614b3f565b61215e565b610a13610a0e366004614b3f565b612290565b6040516104a39190614dc5565b600a5461049790600160b81b900460ff1681565b610a13612306565b6104bf610a4a366004614f55565b612368565b610542610a5d366004614d33565b601260209081526000928352604080842090915290825290205481565b6104bf610a88366004614fde565b6125f0565b600254610563906001600160a01b031681565b610542610aae366004614b3f565b601a6020526000908152604090205481565b610542610ace366004614bb7565b612653565b610542610ae1366004614b3f565b60186020526000908152604090205481565b610b06610b0136600461502e565b6126de565b6040516104a39190615063565b610b26610b21366004614cf2565b6127a6565b604080519283526020830191909152016104a3565b610b506a0c097ce7bc90715b34b9f160241b81565b6040516001600160e01b0390911681526020016104a3565b6104bf610b763660046150f6565b6129c4565b610542610b89366004614d61565b612afa565b610542610b9c366004614cf2565b612ca1565b610563610baf366004614a14565b613074565b600354610563906001600160a01b031681565b610542610bd5366004614b3f565b60146020526000908152604090205481565b610542610bf5366004614a14565b6130ac565b600a5461049790600160a81b900460ff1681565b61054260055481565b610542610c25366004614cf2565b61323e565b610542610c38366004614b3f565b613279565b601b546104979060ff1681565b610542610c58366004614b3f565b60196020526000908152604090205481565b600054610563906001600160a01b031681565b610c856135de565b610cd65760405162461bcd60e51b815260206004820152601e60248201527f6f6e6c792061646d696e2063616e20736574206a4c656e64207370656564000060448201526064015b60405180910390fd5b610cdf82611f0c565b80600003610d05576001600160a01b038216600090815260186020526040812055610d20565b436001600160a01b0383166000908152601860205260409020555b6001600160a01b03821660008181526017602052604090819020839055517f62a2e16b2c6f9b5112d36a5ef464190b4e5b09908b236ff8623c1fb59e8cdb8890610d6d9084815260200190565b60405180910390a25050565b610d816135de565b610dcd5760405162461bcd60e51b815260206004820152601a60248201527f6f6e6c792061646d696e2063616e206772616e74206a4c656e640000000000006044820152606401610ccd565b6000610dd98383613607565b90508015610e295760405162461bcd60e51b815260206004820152601c60248201527f696e73756666696369656e74206a4c656e6420666f72206772616e74000000006044820152606401610ccd565b604080516001600160a01b0385168152602081018490527f6489df0eb556a851d96bd371cae09d859a6ea21087b187550d210edca2078130910160405180910390a1505050565b6000546001600160a01b03163314610ed45760405162461bcd60e51b815260206004820152602160248201527f4f6e6c792061646d696e2063616e2063616c6c20746869732066756e6374696f6044820152603760f91b6064820152608401610ccd565b601b5460ff1615610f365760405162461bcd60e51b815260206004820152602660248201527f416c72656164792065786563757465642074686973206f6e652d6f66662066756044820152653731ba34b7b760d11b6064820152608401610ccd565b828114610f755760405162461bcd60e51b815260206004820152600d60248201526c125b9d985b1a59081a5b9c1d5d609a1b6044820152606401610ccd565b60008060008060005b878110156110fc57888882818110610f9857610f9861517e565b9050602002016020810190610fad9190614b3f565b6001600160a01b0381166000908152601460205260409020549095509350868682818110610fdd57610fdd61517e565b90506020020135925083831115611081576000610ffa85856151aa565b6001600160a01b0387166000908152601c6020526040812054919250611020828461372c565b6001600160a01b0389166000818152601c6020908152604091829020849055815186815290810184905292935090917fb2b202b3f7e2f68ef68a34851f23c9659809ba6e871e138b39142ec6b4778616910160405180910390a28695505050505b82156110ec576110918484613738565b6001600160a01b038616600081815260146020908152604091829020849055815188815290810184905292945090917fb0dbdba24dfe22e94e648f2324cd3c921aacf3061ad94658b2b09fceeb828d4b910160405180910390a25b6110f5816151bd565b9050610f7e565b5050601b805460ff1916600117905550505050505050565b6001600160a01b03821660009081526009602052604081205460ff1661114c5760405162461bcd60e51b8152600401610ccd906151d6565b600a546001600160a01b031633148061116f57506000546001600160a01b031633145b61118b5760405162461bcd60e51b8152600401610ccd9061521e565b6000546001600160a01b03163314806111a657506001821515145b6111c25760405162461bcd60e51b8152600401610ccd90615265565b6001600160a01b0383166000818152600c6020908152604091829020805460ff19168615159081179091558251938452606091840182905260069184019190915265426f72726f7760d01b6080840152908201527f71aec636243f9709bb0007ae15e9afb8150ab01716d75fd7573be5cc096e03b09060a0015b60405180910390a150805b92915050565b806001600160a01b031663f851a4406040518163ffffffff1660e01b8152600401602060405180830381865afa15801561128b573d6000803e3d6000fd5b505050506040513d601f19601f820116820180604052508101906112af9190615295565b6001600160a01b0316336001600160a01b03161461131f5760405162461bcd60e51b815260206004820152602760248201527f6f6e6c7920756e6974726f6c6c65722061646d696e2063616e206368616e676560448201526620627261696e7360c81b6064820152608401610ccd565b806001600160a01b031663c1e803346040518163ffffffff1660e01b81526004016020604051808303816000875af115801561135f573d6000803e3d6000fd5b505050506040513d601f19601f8201168201806040525081019061138391906152b2565b156113c85760405162461bcd60e51b815260206004820152601560248201527418da185b99d9481b9bdd08185d5d1a1bdc9a5e9959605a1b6044820152606401610ccd565b50565b6001600160a01b03841660009081526009602052604081205460ff166113f357506009611481565b60006040518060200160405280876001600160a01b031663aa5af0fd6040518163ffffffff1660e01b8152600401602060405180830381865afa15801561143e573d6000803e3d6000fd5b505050506040513d601f19601f8201168201806040525081019061146291906152b2565b905290506114708682613744565b61147b868583613937565b60009150505b949350505050565b600a546000906001600160a01b03163314806114af57506000546001600160a01b031633145b6114cb5760405162461bcd60e51b8152600401610ccd9061521e565b6000546001600160a01b03163314806114e657506001821515145b6115025760405162461bcd60e51b8152600401610ccd90615265565b600a8054831515600160b81b0260ff60b81b199091161790556040517fef159d9a32b2472e32b098f954f3ce62d232939f1c207070b584df1814de2de09061156d9084906040808252600590820152645365697a6560d81b6060820152901515602082015260800190565b60405180910390a15090565b6113c881600d8054806020026020016040519081016040528092919081815260200182805480156115d357602002820191906000526020600020905b81546001600160a01b031681526001909101906020018083116115b5575b50505050506125f0565b600080546001600160a01b031633146116385760405162461bcd60e51b815260206004820152601f60248201527f6f6e6c792061646d696e2063616e2073657420636c6f736520666163746f72006044820152606401610ccd565b600580549083905560408051828152602081018590527f3b9670cf975d26958e754b57098eaa2ac914d8d2a31b83257997b9f346110fd991015b60405180910390a160005b9392505050565b6000546001600160a01b031633146116ed5760405162461bcd60e51b815260206004820152602660248201527f6f6e6c792061646d696e2063616e2073657420626f72726f772063617020677560448201526530b93234b0b760d11b6064820152608401610ccd565b601580546001600160a01b038381166001600160a01b031983168117909355604080519190921680825260208201939093527feda98690e518e9a05f8ec6837663e188211b2da8f4906648b323f2c1d4434e29910160405180910390a15050565b6001600160a01b03821660009081526009602052604081205460ff166117865760405162461bcd60e51b8152600401610ccd906151d6565b600a546001600160a01b03163314806117a957506000546001600160a01b031633145b6117c55760405162461bcd60e51b8152600401610ccd9061521e565b6000546001600160a01b03163314806117e057506001821515145b6117fc5760405162461bcd60e51b8152600401610ccd90615265565b6001600160a01b0383166000818152600b6020908152604091829020805460ff19168615159081179091558251938452606091840182905260049184019190915263135a5b9d60e21b6080840152908201527f71aec636243f9709bb0007ae15e9afb8150ab01716d75fd7573be5cc096e03b09060a00161123c565b60008060008060008061188d8a8a8a8a613ab7565b9250925092508260118111156118a5576118a56152cb565b95509093509150505b9450945094915050565b6001600160a01b0383166000908152600b602052604081205460ff16156119125760405162461bcd60e51b815260206004820152600e60248201526d1b5a5b9d081a5cc81c185d5cd95960921b6044820152606401610ccd565b6001600160a01b03841660009081526009602052604090205460ff1661193c5760095b905061167d565b61194584613de7565b61194f8484613f5f565b6000949350505050565b600080546001600160a01b03163314611978576112476001600b6140fd565b600680549083905560408051828152602081018590527faeba5a6c40a8ac138134bff1aaa65debf25971188a58804bad717f82f0ec13169101611672565b801580156119c45750600082115b1561066f5760405162461bcd60e51b815260206004820152601160248201527072656465656d546f6b656e73207a65726f60781b6044820152606401610ccd565b600d8181548110611a1557600080fd5b6000918252602090912001546001600160a01b0316905081565b600080546001600160a01b03163314611a4e57611247600160106140fd565b600480546001600160a01b038481166001600160a01b031983168117909355604080519190921680825260208201939093527fd52b2b9b7e9ee655fcb95d2e5b9e0c9f69e7ef2b8e9d2d0ea78402d576d22e229101611672565b600080600080600080611abf876000806000613ab7565b925092509250826011811115611ad757611ad76152cb565b97919650945092505050565b600080546001600160a01b03163314611b0257611247600160136140fd565b600a80546001600160a01b038481166001600160a01b031983168117909355604080519190921680825260208201939093527f0613b6ee6a04f0d09f390e4d9318894b9f6ac7fd83897cd8d18896ba579c401e9101611672565b6001600160a01b03851660009081526009602052604081205460ff161580611b9d57506001600160a01b03851660009081526009602052604090205460ff16155b15611bac5760095b9050611d25565b6040516395dd919360e01b81526001600160a01b038481166004830152600091908816906395dd919390602401602060405180830381865afa158015611bf6573d6000803e3d6000fd5b505050506040513d601f19601f82011682018060405250810190611c1a91906152b2565b9050611c258761209f565b15611c905782811015611c8b5760405162461bcd60e51b815260206004820152602860248201527f43616e206e6f74207265706179206d6f7265207468616e2074686520746f74616044820152676c20626f72726f7760c01b6064820152608401610ccd565b611d1f565b600080611c9c86614176565b91935090915060009050826011811115611cb857611cb86152cb565b14611cd957816011811115611ccf57611ccf6152cb565b9350505050611d25565b80600003611ce8576003611ccf565b6000611d04604051806020016040528060055481525085614196565b905080861115611d1b576011945050505050611d25565b5050505b60009150505b95945050505050565b6000546001600160a01b0316331480611d5157506015546001600160a01b031633145b611dbb5760405162461bcd60e51b815260206004820152603560248201527f6f6e6c792061646d696e206f7220626f72726f772063617020677561726469616044820152746e2063616e2073657420626f72726f77206361707360581b6064820152608401610ccd565b82818115801590611dcb57508082145b611e075760405162461bcd60e51b815260206004820152600d60248201526c1a5b9d985b1a59081a5b9c1d5d609a1b6044820152606401610ccd565b60005b82811015611f0357848482818110611e2457611e2461517e565b9050602002013560166000898985818110611e4157611e4161517e565b9050602002016020810190611e569190614b3f565b6001600160a01b03168152602081019190915260400160002055868682818110611e8257611e8261517e565b9050602002016020810190611e979190614b3f565b6001600160a01b03167f6f1951b2aad10f3fc81b86d91105b413a5b3f847a34bbc5ce1904201b14438f6868684818110611ed357611ed361517e565b90506020020135604051611ee991815260200190565b60405180910390a280611efb816151bd565b915050611e0a565b50505050505050565b6001600160a01b038116600090815260176020908152604080832054601890925282205490914391611f3f908390613738565b9050600081118015611f515750600083115b1561066f576000611f6282856141ae565b6001600160a01b03861660009081526014602052604081205491925090611f89908361372c565b6001600160a01b0387166000908152601460209081526040808320939093556018905220849055505050505050565b600a546000906001600160a01b0316331480611fde57506000546001600160a01b031633145b611ffa5760405162461bcd60e51b8152600401610ccd9061521e565b6000546001600160a01b031633148061201557506001821515145b6120315760405162461bcd60e51b8152600401610ccd90615265565b600a8054831515600160b01b0260ff60b01b199091161790556040517fef159d9a32b2472e32b098f954f3ce62d232939f1c207070b584df1814de2de09061156d9084906040808252600890820152672a3930b739b332b960c11b6060820152901515602082015260800190565b6001600160a01b0381166000908152600960205260408120600101541580156120e557506001600160a01b0382166000908152600c602052604090205460ff1615156001145b80156112475750816001600160a01b031663173b99046040518163ffffffff1660e01b8152600401602060405180830381865afa15801561212a573d6000803e3d6000fd5b505050506040513d601f19601f8201168201806040525081019061214e91906152b2565b670de0b6b3a76400001492915050565b600080546001600160a01b0316331461217d57611247600160126140fd565b6001600160a01b03821660009081526009602052604090205460ff16156121aa57611247600a60116140fd565b816001600160a01b031663406de0b66040518163ffffffff1660e01b8152600401602060405180830381865afa1580156121e8573d6000803e3d6000fd5b505050506040513d601f19601f8201168201806040525081019061220c91906152e1565b506001600160a01b03821660009081526009602052604081208054600160ff199182168117835560038301805490921690915581019190915561224e836141ba565b612257836142a2565b6040516001600160a01b03841681527fcf583bb0c569eb967f806b11601c4cb93c10310485c67add5f8362c2f212321f90602001611672565b6001600160a01b03811660009081526008602090815260408083208054825181850281018501909352808352606094938301828280156122f957602002820191906000526020600020905b81546001600160a01b031681526001909101906020018083116122db575b5093979650505050505050565b6060600d80548060200260200160405190810160405280929190818152602001828054801561235e57602002820191906000526020600020905b81546001600160a01b03168152600190910190602001808311612340575b5050505050905090565b60005b835181101561252d5760008482815181106123885761238861517e565b6020908102919091018101516001600160a01b0381166000908152600990925260409091205490915060ff166123f85760405162461bcd60e51b81526020600482015260156024820152741b585c9ad95d081b5d5cdd081899481b1a5cdd1959605a1b6044820152606401610ccd565b8315156001036124c45760006040518060200160405280836001600160a01b031663aa5af0fd6040518163ffffffff1660e01b8152600401602060405180830381865afa15801561244d573d6000803e3d6000fd5b505050506040513d601f19601f8201168201806040525081019061247191906152b2565b9052905061247f8282613744565b60005b87518110156124c1576124af838983815181106124a1576124a161517e565b602002602001015184613937565b806124b9816151bd565b915050612482565b50505b82151560010361251a576124d781613de7565b60005b865181101561251857612506828883815181106124f9576124f961517e565b6020026020010151613f5f565b80612510816151bd565b9150506124da565b505b5080612525816151bd565b91505061236b565b5060005b845181101561051b5761259b85828151811061254f5761254f61517e565b60200260200101516014600088858151811061256d5761256d61517e565b60200260200101516001600160a01b03166001600160a01b0316815260200190815260200160002054613607565b601460008784815181106125b1576125b161517e565b60200260200101516001600160a01b03166001600160a01b031681526020019081526020016000208190555080806125e8906151bd565b915050612531565b6040805160018082528183019092526000916020808301908036833701905050905082816000815181106126265761262661517e565b60200260200101906001600160a01b031690816001600160a01b0316815250506108148183600180612368565b600a54600090600160b01b900460ff16156126a55760405162461bcd60e51b81526020600482015260126024820152711d1c985b9cd9995c881a5cc81c185d5cd95960721b6044820152606401610ccd565b60006126b2868685614366565b905080156126c1579050611481565b6126ca86613de7565b6126d48686613f5f565b61147b8685613f5f565b805160609060008167ffffffffffffffff8111156126fe576126fe614e12565b604051908082528060200260200182016040528015612727578160200160208202803683370190505b50905060005b8281101561279e5760008582815181106127495761274961517e565b6020026020010151905061275d813361441e565b601181111561276e5761276e6152cb565b8383815181106127805761278061517e565b60209081029190910101525080612796816151bd565b91505061272d565b509392505050565b6004805460405163fc57d4df60e01b81526001600160a01b03868116938201939093526000928392839291169063fc57d4df90602401602060405180830381865afa1580156127f9573d6000803e3d6000fd5b505050506040513d601f19601f8201168201806040525081019061281d91906152b2565b6004805460405163fc57d4df60e01b81526001600160a01b038981169382019390935292935060009291169063fc57d4df90602401602060405180830381865afa15801561286f573d6000803e3d6000fd5b505050506040513d601f19601f8201168201806040525081019061289391906152b2565b90508115806128a0575080155b156128b457600d60009350935050506129bc565b6000866001600160a01b031663182df0f56040518163ffffffff1660e01b8152600401602060405180830381865afa1580156128f4573d6000803e3d6000fd5b505050506040513d601f19601f8201168201806040525081019061291891906152b2565b905060006129326040518060200160405280600081525090565b60408051602080820183526000808352835180830185529081528351808301855260065481528451928301909452888252919261296e91614512565b9250612996604051806020016040528088815250604051806020016040528088815250614512565b91506129a2838361455a565b90506129ae818b614196565b600099509750505050505050505b935093915050565b6129cc6135de565b612a185760405162461bcd60e51b815260206004820152601e60248201527f6f6e6c792061646d696e2063616e20736574206a4c656e6420737065656400006044820152606401610ccd565b8251825181148015612a2a5750815181145b612a895760405162461bcd60e51b815260206004820152602a60248201527f436f6d7074726f6c6c65723a3a5f7365744a4c656e6453706565647320696e76604482015269185b1a59081a5b9c1d5d60b21b6064820152608401610ccd565b60005b8181101561051b57612aea858281518110612aa957612aa961517e565b6020026020010151858381518110612ac357612ac361517e565b6020026020010151858481518110612add57612add61517e565b6020026020010151614594565b612af3816151bd565b9050612a8c565b600a54600090600160b81b900460ff1615612b495760405162461bcd60e51b815260206004820152600f60248201526e1cd95a5e99481a5cc81c185d5cd959608a1b6044820152606401610ccd565b6001600160a01b03861660009081526009602052604090205460ff161580612b8a57506001600160a01b03851660009081526009602052604090205460ff16155b15612b96576009611ba5565b846001600160a01b0316635fe3b5676040518163ffffffff1660e01b8152600401602060405180830381865afa158015612bd4573d6000803e3d6000fd5b505050506040513d601f19601f82011682018060405250810190612bf89190615295565b6001600160a01b0316866001600160a01b0316635fe3b5676040518163ffffffff1660e01b8152600401602060405180830381865afa158015612c3f573d6000803e3d6000fd5b505050506040513d601f19601f82011682018060405250810190612c639190615295565b6001600160a01b031614612c78576002611ba5565b612c8186613de7565b612c8b8684613f5f565b612c958685613f5f565b60009695505050505050565b6001600160a01b0383166000908152600c602052604081205460ff1615612cfd5760405162461bcd60e51b815260206004820152601060248201526f189bdc9c9bddc81a5cc81c185d5cd95960821b6044820152606401610ccd565b6001600160a01b03841660009081526009602052604090205460ff16612d24576009611935565b6001600160a01b038085166000908152600960209081526040808320938716835260029093019052205460ff16612e2157336001600160a01b03851614612da55760405162461bcd60e51b815260206004820152601560248201527439b2b73232b91036bab9ba10313290352a37b5b2b760591b6044820152606401610ccd565b6000612db1338561441e565b90506000816011811115612dc757612dc76152cb565b14612de657806011811115612dde57612dde6152cb565b91505061167d565b6001600160a01b038086166000908152600960209081526040808320938816835260029093019052205460ff16612e1f57612e1f6152fe565b505b6004805460405163fc57d4df60e01b81526001600160a01b038781169382019390935291169063fc57d4df90602401602060405180830381865afa158015612e6d573d6000803e3d6000fd5b505050506040513d601f19601f82011682018060405250810190612e9191906152b2565b600003612e9f57600d611935565b6001600160a01b0384166000908152601660205260409020548015612f84576000856001600160a01b03166347bd37186040518163ffffffff1660e01b8152600401602060405180830381865afa158015612efe573d6000803e3d6000fd5b505050506040513d601f19601f82011682018060405250810190612f2291906152b2565b90506000612f30828661372c565b9050828110612f815760405162461bcd60e51b815260206004820152601960248201527f6d61726b657420626f72726f77206361702072656163686564000000000000006044820152606401610ccd565b50505b600080612f948688600088613ab7565b91935090915060009050826011811115612fb057612fb06152cb565b14612fd157816011811115612fc757612fc76152cb565b935050505061167d565b8015612fde576004612fc7565b60006040518060200160405280896001600160a01b031663aa5af0fd6040518163ffffffff1660e01b8152600401602060405180830381865afa158015613029573d6000803e3d6000fd5b505050506040513d601f19601f8201168201806040525081019061304d91906152b2565b9052905061305b8882613744565b613066888883613937565b600098975050505050505050565b6008602052816000526040600020818154811061309057600080fd5b6000918252602090912001546001600160a01b03169150829050565b600080546001600160a01b031633146130d2576130cb600160066140fd565b9050611247565b6001600160a01b0383166000908152600960205260409020805460ff16613107576130ff600960076140fd565b915050611247565b60408051602080820183528582528251908101909252670c7d713b49da000082529061313581835190511090565b1561315057613146600660086140fd565b9350505050611247565b84158015906131cc57506004805460405163fc57d4df60e01b81526001600160a01b038981169382019390935291169063fc57d4df90602401602060405180830381865afa1580156131a6573d6000803e3d6000fd5b505050506040513d601f19601f820116820180604052508101906131ca91906152b2565b155b156131dd57613146600d60096140fd565b60018301805490869055604080516001600160a01b0389168152602081018390529081018790527f70483e6592cd5182d45ac970e05bc62cdcc90e9d8ef2c2dbe686cf383bcd7fc59060600160405180910390a16000979650505050505050565b60008061324c858585614366565b9050801561325b57905061167d565b61326485613de7565b61326e8585613f5f565b600095945050505050565b6040516361bfb47160e11b815233600482015260009082908290819081906001600160a01b0385169063c37f68e290602401608060405180830381865afa1580156132c8573d6000803e3d6000fd5b505050506040513d601f19601f820116820180604052508101906132ec9190615314565b50925092509250826000146133515760405162461bcd60e51b815260206004820152602560248201527f657869744d61726b65743a206765744163636f756e74536e617073686f742066604482015264185a5b195960da1b6064820152608401610ccd565b801561336d57613363600c60026140fd565b9695505050505050565b600061337a873385614366565b9050801561339a5761338f600e600383614773565b979650505050505050565b6001600160a01b0385166000908152600960209081526040808320338452600281019092529091205460ff166133d857600098975050505050505050565b3360009081526002820160209081526040808320805460ff19169055600882528083208054825181850281018501909352808352919290919083018282801561344a57602002820191906000526020600020905b81546001600160a01b0316815260019091019060200180831161342c575b5050835193945083925060009150505b828110156134ae57896001600160a01b031684828151811061347e5761347e61517e565b60200260200101516001600160a01b03160361349c578091506134ae565b806134a6816151bd565b91505061345a565b508181106134be576134be6152fe565b336000908152600860205260409020805481906134dd906001906151aa565b815481106134ed576134ed61517e565b9060005260206000200160009054906101000a90046001600160a01b031681838154811061351d5761351d61517e565b9060005260206000200160006101000a8154816001600160a01b0302191690836001600160a01b031602179055508080548061355b5761355b61534a565b600082815260209020810160001990810180546001600160a01b03191690550190556040517fe699a64c18b07ac5b7301aa273f36a2287239eb9501d81950672794afba29a0d906135c4908c9033906001600160a01b0392831681529116602082015260400190565b60405180910390a160009c9b505050505050505050505050565b600080546001600160a01b031633148061360257506002546001600160a01b031633145b905090565b60008073c00e94cb662c3520282e6f5717214004a7f268886040516370a0823160e01b81523060048201529091506000906001600160a01b038316906370a0823190602401602060405180830381865afa158015613669573d6000803e3d6000fd5b505050506040513d601f19601f8201168201806040525081019061368d91906152b2565b905060008411801561369f5750808411155b156137235760405163a9059cbb60e01b81526001600160a01b0386811660048301526024820186905283169063a9059cbb906044016020604051808303816000875af11580156136f3573d6000803e3d6000fd5b505050506040513d601f19601f8201168201806040525081019061371791906152e1565b50600092505050611247565b50919392505050565b600061167d8284615360565b600061167d82846151aa565b6001600160a01b0382166000908152601160209081526040808320601990925282205490916137a9435b6040518060400160405280601c81526020017f626c6f636b206e756d62657220657863656564732033322062697473000000008152506147eb565b83549091506000906137cb9063ffffffff80851691600160e01b900416613738565b90506000811180156137dd5750600083115b1561390c57600061384f876001600160a01b03166347bd37186040518163ffffffff1660e01b8152600401602060405180830381865afa158015613825573d6000803e3d6000fd5b505050506040513d601f19601f8201168201806040525081019061384991906152b2565b8761481b565b9050600061385d83866141ae565b9050600080831161387d5760405180602001604052806000815250613887565b6138878284614839565b604080516020810190915288546001600160e01b031681529091506138ea906138b09083614874565b5160408051808201909152601a81527f6e657720696e646578206578636565647320323234206269747300000000000060208201526148a0565b6001600160e01b0316600160e01b63ffffffff87160217875550610689915050565b801561068957835463ffffffff8316600160e01b026001600160e01b03909116178455505050505050565b6001600160a01b03838116600090815260116020908152604080832080546013845282852095881685529490925290912080546001600160e01b039093169081905590918015801561399757506a0c097ce7bc90715b34b9f160241b8210155b156139ad57506a0c097ce7bc90715b34b9f160241b5b600060405180602001604052806139c48585613738565b90526040516395dd919360e01b81526001600160a01b038881166004830152919250600091613a1791908a16906395dd919390602401602060405180830381865afa158015613825573d6000803e3d6000fd5b90506000613a2582846148c7565b6001600160a01b03891660009081526014602052604081205491925090613a4c908361372c565b6001600160a01b038a811660008181526014602090815260409182902085905581518781529081018b90529394509092918d16917fc14818e2454a5dd33f99abe0e62b58e0fdc301e84aeb6d6f466f92c17ed14593910160405180910390a350505050505050505050565b6000806000613ac461495d565b6001600160a01b038816600090815260086020908152604080832080548251818502810185019093528083528493830182828015613b2b57602002820191906000526020600020905b81546001600160a01b03168152600190910190602001808311613b0d575b5050505050905060005b8151811015613d91576000828281518110613b5257613b5261517e565b60209081029190910101516040516361bfb47160e11b81526001600160a01b038e811660048301529192509082169063c37f68e290602401608060405180830381865afa158015613ba7573d6000803e3d6000fd5b505050506040513d601f19601f82011682018060405250810190613bcb9190615314565b60808901526060880152604087015293508315613bf757600f60008097509750975050505050506118ae565b60408051602080820183526001600160a01b0384811660008181526009845285902060010154845260c08a01939093528351808301855260808a0151815260e08a015260048054855163fc57d4df60e01b815291820194909452935192169263fc57d4df92602480830193928290030181865afa158015613c7c573d6000803e3d6000fd5b505050506040513d601f19601f82011682018060405250810190613ca091906152b2565b60a08601819052600003613cc357600d60008097509750975050505050506118ae565b604080516020810190915260a0860151815261010086015260c085015160e0860151613cfd91613cf291614512565b866101000151614512565b610120860181905260408601518651613d179291906148f0565b855261010085015160608601516020870151613d349291906148f0565b60208601526001600160a01b03808c1690821603613d7e57613d608561012001518b87602001516148f0565b60208601819052610100860151613d78918b906148f0565b60208601525b5080613d89816151bd565b915050613b35565b50602083015183511115613dc25760208301518351600091613db2916151aa565b60009550955095505050506118ae565b60008084600001518560200151613dd991906151aa565b9550955095505050506118ae565b6001600160a01b0381166000908152601060209081526040808320601a9092528220549091613e154361376e565b8354909150600090613e379063ffffffff80851691600160e01b900416613738565b9050600081118015613e495750600083115b15613f35576000856001600160a01b03166318160ddd6040518163ffffffff1660e01b8152600401602060405180830381865afa158015613e8e573d6000803e3d6000fd5b505050506040513d601f19601f82011682018060405250810190613eb291906152b2565b90506000613ec083866141ae565b90506000808311613ee05760405180602001604052806000815250613eea565b613eea8284614839565b604080516020810190915288546001600160e01b03168152909150613f13906138b09083614874565b6001600160e01b0316600160e01b63ffffffff8716021787555061051b915050565b801561051b57835463ffffffff8316600160e01b026001600160e01b039091161784555050505050565b6001600160a01b03828116600090815260106020908152604080832080546012845282852095871685529490925290912080546001600160e01b0390931690819055909180158015613fbf57506a0c097ce7bc90715b34b9f160241b8210155b15613fd557506a0c097ce7bc90715b34b9f160241b5b60006040518060200160405280613fec8585613738565b90526040516370a0823160e01b81526001600160a01b0387811660048301529192506000918816906370a0823190602401602060405180830381865afa15801561403a573d6000803e3d6000fd5b505050506040513d601f19601f8201168201806040525081019061405e91906152b2565b9050600061406c82846148c7565b6001600160a01b03881660009081526014602052604081205491925090614093908361372c565b6001600160a01b0389811660008181526014602090815260409182902085905581518781529081018b90529394509092918c16917fc322ec22e11741d7cb5d1d1fd111658d62f9390b747fe54119a220d9b6f76ccb910160405180910390a3505050505050505050565b60007f45b96fe442630264581b197e84bbada861235052c5a1aadfff9ea4e40a969aa0836011811115614132576141326152cb565b836013811115614144576141446152cb565b60408051928352602083019190915260009082015260600160405180910390a182601181111561167d5761167d6152cb565b6000806000614189846000806000613ab7565b9250925092509193909250565b6000806141a38484614911565b905061148181614939565b600061167d8284615373565b60005b600d5481101561424f57816001600160a01b0316600d82815481106141e4576141e461517e565b6000918252602090912001546001600160a01b03160361423d5760405162461bcd60e51b81526020600482015260146024820152731b585c9ad95d08185b1c9958591e48185919195960621b6044820152606401610ccd565b80614247816151bd565b9150506141bd565b50600d80546001810182556000919091527fd7b6990105719101dabeb77144f2a3385c8033acd3af97e9423a695e81ad1eb50180546001600160a01b0319166001600160a01b0392909216919091179055565b60006142ad4361376e565b6001600160a01b0383166000908152601060209081526040808320601190925282208154939450909290916001600160e01b0390911690036143085781546001600160e01b0319166a0c097ce7bc90715b34b9f160241b1782555b80546001600160e01b03166000036143395780546001600160e01b0319166a0c097ce7bc90715b34b9f160241b1781555b805463ffffffff909316600160e01b026001600160e01b0393841681179091558154909216909117905550565b6001600160a01b03831660009081526009602052604081205460ff1661438d576009611935565b6001600160a01b038085166000908152600960209081526040808320938716835260029093019052205460ff166143c5576000611935565b6000806143d58587866000613ab7565b919350909150600090508260118111156143f1576143f16152cb565b1461441157816011811115614408576144086152cb565b9250505061167d565b8015612c95576004614408565b6001600160a01b0382166000908152600960205260408120805460ff16614449576009915050611247565b6001600160a01b038316600090815260028201602052604090205460ff16151560010361447a576000915050611247565b6001600160a01b03838116600081815260028401602090815260408083208054600160ff199091168117909155600883528184208054918201815584529282902090920180546001600160a01b031916948916948517905581519384528301919091527f3ab23ab0d51cccc0c3085aec51f99228625aa1a922b3a8ca89a26b0f2027a1a5910160405180910390a15060009392505050565b6040805160208101909152600081526040518060200160405280670de0b6b3a7640000614547866000015186600001516141ae565b614551919061538a565b90529392505050565b604080516020810190915260008152604051806020016040528061455161458d8660000151670de0b6b3a76400006141ae565b8551614951565b6001600160a01b0383166000908152600960205260409020805460ff166145fd5760405162461bcd60e51b815260206004820152601a60248201527f6a4c656e64206d61726b6574206973206e6f74206c69737465640000000000006044820152606401610ccd565b6001600160a01b0384166000908152601a6020526040902054831461467b5761462584613de7565b6001600160a01b0384166000818152601a602052604090819020859055517f27827cff1792c3090288dfecebd7a631c61d8957d2c104554173a1ca51c62e2a906146729086815260200190565b60405180910390a25b6001600160a01b038416600090815260196020526040902054821461066f5760006040518060200160405280866001600160a01b031663aa5af0fd6040518163ffffffff1660e01b8152600401602060405180830381865afa1580156146e5573d6000803e3d6000fd5b505050506040513d601f19601f8201168201806040525081019061470991906152b2565b905290506147178582613744565b6001600160a01b03851660008181526019602052604090819020859055517f44a9aad49b355be8099fb4a7e2c046f617a61970b94d642fcc4d2c9ec553692a906147649086815260200190565b60405180910390a25050505050565b60007f45b96fe442630264581b197e84bbada861235052c5a1aadfff9ea4e40a969aa08460118111156147a8576147a86152cb565b8460138111156147ba576147ba6152cb565b604080519283526020830191909152810184905260600160405180910390a1836011811115611481576114816152cb565b60008164010000000084106148135760405162461bcd60e51b8152600401610ccd91906153ac565b509192915050565b600061167d61483284670de0b6b3a76400006141ae565b8351614951565b604080516020810190915260008152604051806020016040528061455161486e866a0c097ce7bc90715b34b9f160241b6141ae565b85614951565b60408051602081019091526000815260405180602001604052806145518560000151856000015161372c565b600081600160e01b84106148135760405162461bcd60e51b8152600401610ccd91906153ac565b60006a0c097ce7bc90715b34b9f160241b6148e68484600001516141ae565b61167d919061538a565b6000806148fd8585614911565b9050611d2561490b82614939565b8461372c565b60408051602081019091526000815260405180602001604052806145518560000151856141ae565b805160009061124790670de0b6b3a76400009061538a565b600061167d828461538a565b6040518061014001604052806000815260200160008152602001600081526020016000815260200160008152602001600081526020016149a96040518060200160405280600081525090565b81526020016149c46040518060200160405280600081525090565b81526020016149df6040518060200160405280600081525090565b81526020016149fa6040518060200160405280600081525090565b905290565b6001600160a01b03811681146113c857600080fd5b60008060408385031215614a2757600080fd5b8235614a32816149ff565b946020939093013593505050565b60008083601f840112614a5257600080fd5b50813567ffffffffffffffff811115614a6a57600080fd5b6020830191508360208260051b8501011115614a8557600080fd5b9250929050565b60008060008060408587031215614aa257600080fd5b843567ffffffffffffffff80821115614aba57600080fd5b614ac688838901614a40565b90965094506020870135915080821115614adf57600080fd5b50614aec87828801614a40565b95989497509550505050565b80151581146113c857600080fd5b60008060408385031215614b1957600080fd5b8235614b24816149ff565b91506020830135614b3481614af8565b809150509250929050565b600060208284031215614b5157600080fd5b813561167d816149ff565b600080600080600060a08688031215614b7457600080fd5b8535614b7f816149ff565b94506020860135614b8f816149ff565b93506040860135614b9f816149ff565b94979396509394606081013594506080013592915050565b60008060008060808587031215614bcd57600080fd5b8435614bd8816149ff565b93506020850135614be8816149ff565b92506040850135614bf8816149ff565b9396929550929360600135925050565b600060208284031215614c1a57600080fd5b813561167d81614af8565b600060208284031215614c3757600080fd5b5035919050565b60008060008060808587031215614c5457600080fd5b8435614c5f816149ff565b93506020850135614c6f816149ff565b93969395505050506040820135916060013590565b60008060008060008060c08789031215614c9d57600080fd5b8635614ca8816149ff565b95506020870135614cb8816149ff565b94506040870135614cc8816149ff565b93506060870135614cd8816149ff565b9598949750929560808101359460a0909101359350915050565b600080600060608486031215614d0757600080fd5b8335614d12816149ff565b92506020840135614d22816149ff565b929592945050506040919091013590565b60008060408385031215614d4657600080fd5b8235614d51816149ff565b91506020830135614b34816149ff565b600080600080600060a08688031215614d7957600080fd5b8535614d84816149ff565b94506020860135614d94816149ff565b93506040860135614da4816149ff565b92506060860135614db4816149ff565b949793965091946080013592915050565b6020808252825182820181905260009190848201906040850190845b81811015614e065783516001600160a01b031683529284019291840191600101614de1565b50909695505050505050565b634e487b7160e01b600052604160045260246000fd5b604051601f8201601f1916810167ffffffffffffffff81118282101715614e5157614e51614e12565b604052919050565b600067ffffffffffffffff821115614e7357614e73614e12565b5060051b60200190565b600082601f830112614e8e57600080fd5b81356020614ea3614e9e83614e59565b614e28565b82815260059290921b84018101918181019086841115614ec257600080fd5b8286015b84811015614ee6578035614ed9816149ff565b8352918301918301614ec6565b509695505050505050565b600082601f830112614f0257600080fd5b81356020614f12614e9e83614e59565b82815260059290921b84018101918181019086841115614f3157600080fd5b8286015b84811015614ee6578035614f48816149ff565b8352918301918301614f35565b60008060008060808587031215614f6b57600080fd5b843567ffffffffffffffff80821115614f8357600080fd5b614f8f88838901614e7d565b95506020870135915080821115614fa557600080fd5b50614fb287828801614ef1565b9350506040850135614fc381614af8565b91506060850135614fd381614af8565b939692955090935050565b60008060408385031215614ff157600080fd5b8235614ffc816149ff565b9150602083013567ffffffffffffffff81111561501857600080fd5b61502485828601614ef1565b9150509250929050565b60006020828403121561504057600080fd5b813567ffffffffffffffff81111561505757600080fd5b61148184828501614e7d565b6020808252825182820181905260009190848201906040850190845b81811015614e065783518352928401929184019160010161507f565b600082601f8301126150ac57600080fd5b813560206150bc614e9e83614e59565b82815260059290921b840181019181810190868411156150db57600080fd5b8286015b84811015614ee657803583529183019183016150df565b60008060006060848603121561510b57600080fd5b833567ffffffffffffffff8082111561512357600080fd5b61512f87838801614ef1565b9450602086013591508082111561514557600080fd5b6151518783880161509b565b9350604086013591508082111561516757600080fd5b506151748682870161509b565b9150509250925092565b634e487b7160e01b600052603260045260246000fd5b634e487b7160e01b600052601160045260246000fd5b8181038181111561124757611247615194565b6000600182016151cf576151cf615194565b5060010190565b60208082526028908201527f63616e6e6f742070617573652061206d61726b65742074686174206973206e6f6040820152671d081b1a5cdd195960c21b606082015260800190565b60208082526027908201527f6f6e6c7920706175736520677561726469616e20616e642061646d696e2063616040820152666e20706175736560c81b606082015260800190565b6020808252601690820152756f6e6c792061646d696e2063616e20756e706175736560501b604082015260600190565b6000602082840312156152a757600080fd5b815161167d816149ff565b6000602082840312156152c457600080fd5b5051919050565b634e487b7160e01b600052602160045260246000fd5b6000602082840312156152f357600080fd5b815161167d81614af8565b634e487b7160e01b600052600160045260246000fd5b6000806000806080858703121561532a57600080fd5b505082516020840151604085015160609095015191969095509092509050565b634e487b7160e01b600052603160045260246000fd5b8082018082111561124757611247615194565b808202811582820484141761124757611247615194565b6000826153a757634e487b7160e01b600052601260045260246000fd5b500490565b600060208083528351808285015260005b818110156153d9578581018301518582016040015282016153bd565b506000604082860101526040601f19601f830116850101925050509291505056fea26469706673582212204f26527896cb6d42e1cd127bf8c5baece0941ea721708b3cc90ad97fcf5d689664736f6c63430008140033",
  "libraries": {},
  "devdoc": {
    "author": "JLEND",
    "events": {
      "Failure(uint256,uint256,uint256)": {
        "details": "`error` corresponds to enum Error; `info` corresponds to enum FailureInfo, and `detail` is an arbitrary contract-specific code that enables us to report opaque error codes from upgradeable contracts.*"
      }
    },
    "kind": "dev",
    "methods": {
      "_grantJLend(address,uint256)": {
        "details": "Note: If there is not enough JLEND, we do not perform the transfer all.",
        "params": {
          "amount": "The amount of JLEND to (possibly) transfer",
          "recipient": "The address of the recipient to transfer JLEND to"
        }
      },
      "_setBorrowCapGuardian(address)": {
        "params": {
          "newBorrowCapGuardian": "The address of the new Borrow Cap Guardian"
        }
      },
      "_setCloseFactor(uint256)": {
        "details": "Admin function to set closeFactor",
        "params": {
          "newCloseFactorMantissa": "New close factor, scaled by 1e18"
        },
        "returns": {
          "_0": "uint 0=success, otherwise a failure"
        }
      },
      "_setCollateralFactor(address,uint256)": {
        "details": "Admin function to set per-market collateralFactor",
        "params": {
          "jToken": "The market to set the factor on",
          "newCollateralFactorMantissa": "The new collateral factor, scaled by 1e18"
        },
        "returns": {
          "_0": "uint 0=success, otherwise a failure. (See ErrorReporter for details)"
        }
      },
      "_setContributorJLendSpeed(address,uint256)": {
        "params": {
          "contributor": "The contributor whose JLEND speed to update",
          "jLendSpeed": "New JLEND speed for contributor"
        }
      },
      "_setJLendSpeeds(address[],uint256[],uint256[])": {
        "params": {
          "borrowSpeeds": "New borrow-side JLEND speed for the corresponding market.",
          "jTokens": "The markets whose JLEND speed to update.",
          "supplySpeeds": "New supply-side JLEND speed for the corresponding market."
        }
      },
      "_setLiquidationIncentive(uint256)": {
        "details": "Admin function to set liquidationIncentive",
        "params": {
          "newLiquidationIncentiveMantissa": "New liquidationIncentive scaled by 1e18"
        },
        "returns": {
          "_0": "uint 0=success, otherwise a failure. (See ErrorReporter for details)"
        }
      },
      "_setMarketBorrowCaps(address[],uint256[])": {
        "details": "Admin or borrowCapGuardian function to set the borrow caps. A borrow cap of 0 corresponds to unlimited borrowing.",
        "params": {
          "jTokens": "The addresses of the markets (tokens) to change the borrow caps for",
          "newBorrowCaps": "The new borrow cap values in underlying to be set. A value of 0 corresponds to unlimited borrowing."
        }
      },
      "_setPauseGuardian(address)": {
        "params": {
          "newPauseGuardian": "The address of the new Pause Guardian"
        },
        "returns": {
          "_0": "uint 0=success, otherwise a failure. (See enum Error for details)"
        }
      },
      "_setPriceOracle(address)": {
        "details": "Admin function to set a new price oracle",
        "returns": {
          "_0": "uint 0=success, otherwise a failure (see ErrorReporter.sol for details)"
        }
      },
      "_supportMarket(address)": {
        "details": "Admin function to set isListed and add support for the market",
        "params": {
          "jToken": "The address of the market (token) to list"
        },
        "returns": {
          "_0": "uint 0=success, otherwise a failure. (See enum Error for details)"
        }
      },
      "borrowAllowed(address,address,uint256)": {
        "params": {
          "borrowAmount": "The amount of underlying the account would borrow",
          "borrower": "The account which would borrow the asset",
          "jToken": "The market to verify the borrow against"
        },
        "returns": {
          "_0": "0 if the borrow is allowed, otherwise a semi-opaque error code (See ErrorReporter.sol)"
        }
      },
      "borrowVerify(address,address,uint256)": {
        "params": {
          "borrowAmount": "The amount of the underlying asset requested to borrow",
          "borrower": "The address borrowing the underlying",
          "jToken": "Asset whose underlying is being borrowed"
        }
      },
      "checkMembership(address,address)": {
        "params": {
          "account": "The address of the account to check",
          "jToken": "The jToken to check"
        },
        "returns": {
          "_0": "True if the account is in the asset, otherwise false."
        }
      },
      "claimJLend(address)": {
        "params": {
          "holder": "The address to claim JLEND for"
        }
      },
      "claimJLend(address,address[])": {
        "params": {
          "holder": "The address to claim JLEND for",
          "jTokens": "The list of markets to claim JLEND in"
        }
      },
      "claimJLend(address[],address[],bool,bool)": {
        "params": {
          "borrowers": "Whether or not to claim JLEND earned by borrowing",
          "holders": "The addresses to claim JLEND for",
          "jTokens": "The list of markets to claim JLEND in",
          "suppliers": "Whether or not to claim JLEND earned by supplying"
        }
      },
      "enterMarkets(address[])": {
        "params": {
          "jTokens": "The list of addresses of the jToken markets to be enabled"
        },
        "returns": {
          "_0": "Success indicator for whether each corresponding market was entered"
        }
      },
      "exitMarket(address)": {
        "details": "Sender must not have an outstanding borrow balance in the asset,  or be providing necessary collateral for an outstanding borrow.",
        "params": {
          "jTokenAddress": "The address of the asset to be removed"
        },
        "returns": {
          "_0": "Whether or not the account successfully exited the market"
        }
      },
      "getAccountLiquidity(address)": {
        "returns": {
          "_0": "(possible error code (semi-opaque), account liquidity in excess of collateral requirements,          account shortfall below collateral requirements)"
        }
      },
      "getAllMarkets()": {
        "details": "The automatic getter may be used to access an individual market.",
        "returns": {
          "_0": "The list of market addresses"
        }
      },
      "getAssetsIn(address)": {
        "params": {
          "account": "The address of the account to pull assets for"
        },
        "returns": {
          "_0": "A dynamic list with the assets the account has entered"
        }
      },
      "getHypotheticalAccountLiquidity(address,address,uint256,uint256)": {
        "params": {
          "account": "The account to determine liquidity for",
          "borrowAmount": "The amount of underlying to hypothetically borrow",
          "jTokenModify": "The market to hypothetically redeem/borrow in",
          "redeemTokens": "The number of tokens to hypothetically redeem"
        },
        "returns": {
          "_0": "(possible error code (semi-opaque), hypothetical account liquidity in excess of collateral requirements,          hypothetical account shortfall below collateral requirements)"
        }
      },
      "getJLendAddress()": {
        "returns": {
          "_0": "The address of JLEND"
        }
      },
      "isDeprecated(address)": {
        "details": "All borrows in a deprecated jToken market can be immediately liquidated",
        "params": {
          "jToken": "The market to check if deprecated"
        }
      },
      "liquidateBorrowAllowed(address,address,address,address,uint256)": {
        "params": {
          "borrower": "The address of the borrower",
          "jTokenBorrowed": "Asset which was borrowed by the borrower",
          "jTokenCollateral": "Asset which was used as collateral and will be seized",
          "liquidator": "The address repaying the borrow and seizing the collateral",
          "repayAmount": "The amount of underlying being repaid"
        }
      },
      "liquidateBorrowVerify(address,address,address,address,uint256,uint256)": {
        "params": {
          "actualRepayAmount": "The amount of underlying being repaid",
          "borrower": "The address of the borrower",
          "jTokenBorrowed": "Asset which was borrowed by the borrower",
          "jTokenCollateral": "Asset which was used as collateral and will be seized",
          "liquidator": "The address repaying the borrow and seizing the collateral"
        }
      },
      "liquidateCalculateSeizeTokens(address,address,uint256)": {
        "details": "Used in liquidation (called in jToken.liquidateBorrowFresh)",
        "params": {
          "actualRepayAmount": "The amount of jTokenBorrowed underlying to convert into jTokenCollateral tokens",
          "jTokenBorrowed": "The address of the borrowed jToken",
          "jTokenCollateral": "The address of the collateral jToken"
        },
        "returns": {
          "_0": "(errorCode, number of jTokenCollateral tokens to be seized in a liquidation)"
        }
      },
      "mintAllowed(address,address,uint256)": {
        "params": {
          "jToken": "The market to verify the mint against",
          "mintAmount": "The amount of underlying being supplied to the market in exchange for tokens",
          "minter": "The account which would get the minted tokens"
        },
        "returns": {
          "_0": "0 if the mint is allowed, otherwise a semi-opaque error code (See ErrorReporter.sol)"
        }
      },
      "mintVerify(address,address,uint256,uint256)": {
        "params": {
          "actualMintAmount": "The amount of the underlying asset being minted",
          "jToken": "Asset being minted",
          "mintTokens": "The number of tokens being minted",
          "minter": "The address minting the tokens"
        }
      },
      "redeemAllowed(address,address,uint256)": {
        "params": {
          "jToken": "The market to verify the redeem against",
          "redeemTokens": "The number of jTokens to exchange for the underlying asset in the market",
          "redeemer": "The account which would redeem the tokens"
        },
        "returns": {
          "_0": "0 if the redeem is allowed, otherwise a semi-opaque error code (See ErrorReporter.sol)"
        }
      },
      "redeemVerify(address,address,uint256,uint256)": {
        "params": {
          "jToken": "Asset being redeemed",
          "redeemAmount": "The amount of the underlying asset being redeemed",
          "redeemTokens": "The number of tokens being redeemed",
          "redeemer": "The address redeeming the tokens"
        }
      },
      "repayBorrowAllowed(address,address,address,uint256)": {
        "params": {
          "borrower": "The account which would borrowed the asset",
          "jToken": "The market to verify the repay against",
          "payer": "The account which would repay the asset",
          "repayAmount": "The amount of the underlying asset the account would repay"
        },
        "returns": {
          "_0": "0 if the repay is allowed, otherwise a semi-opaque error code (See ErrorReporter.sol)"
        }
      },
      "repayBorrowVerify(address,address,address,uint256,uint256)": {
        "params": {
          "actualRepayAmount": "The amount of underlying being repaid",
          "borrower": "The address of the borrower",
          "jToken": "Asset being repaid",
          "payer": "The address repaying the borrow"
        }
      },
      "seizeAllowed(address,address,address,address,uint256)": {
        "params": {
          "borrower": "The address of the borrower",
          "jTokenBorrowed": "Asset which was borrowed by the borrower",
          "jTokenCollateral": "Asset which was used as collateral and will be seized",
          "liquidator": "The address repaying the borrow and seizing the collateral",
          "seizeTokens": "The number of collateral tokens to seize"
        }
      },
      "seizeVerify(address,address,address,address,uint256)": {
        "params": {
          "borrower": "The address of the borrower",
          "jTokenBorrowed": "Asset which was borrowed by the borrower",
          "jTokenCollateral": "Asset which was used as collateral and will be seized",
          "liquidator": "The address repaying the borrow and seizing the collateral",
          "seizeTokens": "The number of collateral tokens to seize"
        }
      },
      "transferAllowed(address,address,address,uint256)": {
        "params": {
          "dst": "The account which receives the tokens",
          "jToken": "The market to verify the transfer against",
          "src": "The account which sources the tokens",
          "transferTokens": "The number of jTokens to transfer"
        },
        "returns": {
          "_0": "0 if the transfer is allowed, otherwise a semi-opaque error code (See ErrorReporter.sol)"
        }
      },
      "transferVerify(address,address,address,uint256)": {
        "params": {
          "dst": "The account which receives the tokens",
          "jToken": "Asset being transferred",
          "src": "The account which sources the tokens",
          "transferTokens": "The number of jTokens to transfer"
        }
      },
      "updateContributorRewards(address)": {
        "params": {
          "contributor": "The address to calculate contributor rewards for"
        }
      }
    },
    "title": "JLEND's Comptroller Contract",
    "version": 1
  },
  "userdoc": {
    "events": {
      "ActionPaused(address,string,bool)": {
        "notice": "Emitted when an action is paused on a market"
      },
      "ActionPaused(string,bool)": {
        "notice": "Emitted when an action is paused globally"
      },
      "ContributorJLendSpeedUpdated(address,uint256)": {
        "notice": "Emitted when a new JLEND speed is set for a contributor"
      },
      "DistributedBorrowerJLend(address,address,uint256,uint256)": {
        "notice": "Emitted when JLEND is distributed to a borrower"
      },
      "DistributedSupplierJLend(address,address,uint256,uint256)": {
        "notice": "Emitted when JLEND is distributed to a supplier"
      },
      "JLendAccruedAdjusted(address,uint256,uint256)": {
        "notice": "Emitted when JLEND accrued for a user has been manually adjusted."
      },
      "JLendBorrowSpeedUpdated(address,uint256)": {
        "notice": "Emitted when a new borrow-side JLEND speed is calculated for a market"
      },
      "JLendGranted(address,uint256)": {
        "notice": "Emitted when JLEND is granted by admin"
      },
      "JLendReceivableUpdated(address,uint256,uint256)": {
        "notice": "Emitted when JLEND receivable for a user has been updated."
      },
      "JLendSupplySpeedUpdated(address,uint256)": {
        "notice": "Emitted when a new supply-side JLEND speed is calculated for a market"
      },
      "MarketEntered(address,address)": {
        "notice": "Emitted when an account enters a market"
      },
      "MarketExited(address,address)": {
        "notice": "Emitted when an account exits a market"
      },
      "MarketListed(address)": {
        "notice": "Emitted when an admin supports a market"
      },
      "NewBorrowCap(address,uint256)": {
        "notice": "Emitted when borrow cap for a jToken is changed"
      },
      "NewBorrowCapGuardian(address,address)": {
        "notice": "Emitted when borrow cap guardian is changed"
      },
      "NewCloseFactor(uint256,uint256)": {
        "notice": "Emitted when close factor is changed by admin"
      },
      "NewCollateralFactor(address,uint256,uint256)": {
        "notice": "Emitted when a collateral factor is changed by admin"
      },
      "NewLiquidationIncentive(uint256,uint256)": {
        "notice": "Emitted when liquidation incentive is changed by admin"
      },
      "NewPauseGuardian(address,address)": {
        "notice": "Emitted when pause guardian is changed"
      },
      "NewPriceOracle(address,address)": {
        "notice": "Emitted when price oracle is changed"
      }
    },
    "kind": "user",
    "methods": {
      "_grantJLend(address,uint256)": {
        "notice": "Transfer JLEND to the recipient"
      },
      "_setBorrowCapGuardian(address)": {
        "notice": "Admin function to change the Borrow Cap Guardian"
      },
      "_setCloseFactor(uint256)": {
        "notice": "Sets the closeFactor used when liquidating borrows"
      },
      "_setCollateralFactor(address,uint256)": {
        "notice": "Sets the collateralFactor for a market"
      },
      "_setContributorJLendSpeed(address,uint256)": {
        "notice": "Set JLEND speed for a single contributor"
      },
      "_setJLendSpeeds(address[],uint256[],uint256[])": {
        "notice": "Set JLEND borrow and supply speeds for the specified markets."
      },
      "_setLiquidationIncentive(uint256)": {
        "notice": "Sets liquidationIncentive"
      },
      "_setMarketBorrowCaps(address[],uint256[])": {
        "notice": "Set the given borrow caps for the given jToken markets. Borrowing that brings total borrows to or above borrow cap will revert."
      },
      "_setPauseGuardian(address)": {
        "notice": "Admin function to change the Pause Guardian"
      },
      "_setPriceOracle(address)": {
        "notice": "Sets a new price oracle for the comptroller"
      },
      "_supportMarket(address)": {
        "notice": "Add the market to the markets mapping and set it as listed"
      },
      "accountAssets(address,uint256)": {
        "notice": "Per-account mapping of \"assets you are in\", capped by maxAssets"
      },
      "admin()": {
        "notice": "Administrator for this contract"
      },
      "allMarkets(uint256)": {
        "notice": "A list of all markets"
      },
      "borrowAllowed(address,address,uint256)": {
        "notice": "Checks if the account should be allowed to borrow the underlying asset of the given market"
      },
      "borrowVerify(address,address,uint256)": {
        "notice": "Validates borrow and reverts on rejection. May emit logs."
      },
      "checkMembership(address,address)": {
        "notice": "Returns whether the given account is entered in the given asset"
      },
      "claimJLend(address)": {
        "notice": "Claim all the jLend accrued by holder in all markets"
      },
      "claimJLend(address,address[])": {
        "notice": "Claim all the jLend accrued by holder in the specified markets"
      },
      "claimJLend(address[],address[],bool,bool)": {
        "notice": "Claim all jLend accrued by the holders"
      },
      "closeFactorMantissa()": {
        "notice": "Multiplier used to calculate the maximum repayAmount when liquidating a borrow"
      },
      "comptrollerImplementation()": {
        "notice": "Active brains of Unitroller"
      },
      "enterMarkets(address[])": {
        "notice": "Add assets to be included in account liquidity calculation"
      },
      "exitMarket(address)": {
        "notice": "Removes asset from sender's account liquidity calculation"
      },
      "fixBadAccruals(address[],uint256[])": {
        "notice": "Delete this function after proposal 65 is executed"
      },
      "getAccountLiquidity(address)": {
        "notice": "Determine the current account liquidity wrt collateral requirements"
      },
      "getAllMarkets()": {
        "notice": "Return all of the markets"
      },
      "getAssetsIn(address)": {
        "notice": "Returns the assets an account has entered"
      },
      "getHypotheticalAccountLiquidity(address,address,uint256,uint256)": {
        "notice": "Determine what the account liquidity would be if the given amounts were redeemed/borrowed"
      },
      "getJLendAddress()": {
        "notice": "Return the address of the JLEND token"
      },
      "isComptroller()": {
        "notice": "Indicator that this is a Comptroller contract (for inspection)"
      },
      "isDeprecated(address)": {
        "notice": "Returns true if the given jToken market has been deprecated"
      },
      "jLendAccrued(address)": {
        "notice": "The JLEND accrued but not yet transferred to each user"
      },
      "jLendBorrowSpeeds(address)": {
        "notice": "The rate at which jLend is distributed to the corresponding borrow market (per block)"
      },
      "jLendBorrowState(address)": {
        "notice": "The JLEND market borrow state for each market"
      },
      "jLendBorrowerIndex(address,address)": {
        "notice": "The JLEND borrow index for each market for each borrower as of the last time they accrued JLEND"
      },
      "jLendContributorSpeeds(address)": {
        "notice": "The portion of JLEND that each contributor receives per block"
      },
      "jLendInitialIndex()": {
        "notice": "The initial JLEND index for a market"
      },
      "jLendRate()": {
        "notice": "The rate at which the flywheel distributes JLEND, per block"
      },
      "jLendReceivable(address)": {
        "notice": "Accounting storage mapping account addresses to how much JLEND they owe the protocol."
      },
      "jLendSpeeds(address)": {
        "notice": "The portion of jLendRate that each market currently receives"
      },
      "jLendSupplierIndex(address,address)": {
        "notice": "The JLEND borrow index for each market for each supplier as of the last time they accrued JLEND"
      },
      "jLendSupplySpeeds(address)": {
        "notice": "The rate at which jLend is distributed to the corresponding supply market (per block)"
      },
      "jLendSupplyState(address)": {
        "notice": "The JLEND market supply state for each market"
      },
      "lastContributorBlock(address)": {
        "notice": "Last block at which a contributor's JLEND rewards have been allocated"
      },
      "liquidateBorrowAllowed(address,address,address,address,uint256)": {
        "notice": "Checks if the liquidation should be allowed to occur"
      },
      "liquidateBorrowVerify(address,address,address,address,uint256,uint256)": {
        "notice": "Validates liquidateBorrow and reverts on rejection. May emit logs."
      },
      "liquidateCalculateSeizeTokens(address,address,uint256)": {
        "notice": "Calculate number of tokens of collateral asset to seize given an underlying amount"
      },
      "liquidationIncentiveMantissa()": {
        "notice": "Multiplier representing the discount on collateral that a liquidator receives"
      },
      "markets(address)": {
        "notice": "Official mapping of jTokens -> Market metadata"
      },
      "maxAssets()": {
        "notice": "Max number of assets a single account can participate in (borrow or use as collateral)"
      },
      "mintAllowed(address,address,uint256)": {
        "notice": "Checks if the account should be allowed to mint tokens in the given market"
      },
      "mintVerify(address,address,uint256,uint256)": {
        "notice": "Validates mint and reverts on rejection. May emit logs."
      },
      "oracle()": {
        "notice": "Oracle which gives the price of any given asset"
      },
      "pauseGuardian()": {
        "notice": "The Pause Guardian can pause certain actions as a safety mechanism.  Actions which allow users to remove their own assets cannot be paused.  Liquidation / seizing / transfer can only be paused globally, not by market."
      },
      "pendingAdmin()": {
        "notice": "Pending administrator for this contract"
      },
      "pendingComptrollerImplementation()": {
        "notice": "Pending brains of Unitroller"
      },
      "proposal65FixExecuted()": {
        "notice": "Flag indicating whether the function to fix JLEND accruals has been executed (RE: proposal 62 bug)"
      },
      "redeemAllowed(address,address,uint256)": {
        "notice": "Checks if the account should be allowed to redeem tokens in the given market"
      },
      "redeemVerify(address,address,uint256,uint256)": {
        "notice": "Validates redeem and reverts on rejection. May emit logs."
      },
      "repayBorrowAllowed(address,address,address,uint256)": {
        "notice": "Checks if the account should be allowed to repay a borrow in the given market"
      },
      "repayBorrowVerify(address,address,address,uint256,uint256)": {
        "notice": "Validates repayBorrow and reverts on rejection. May emit logs."
      },
      "seizeAllowed(address,address,address,address,uint256)": {
        "notice": "Checks if the seizing of assets should be allowed to occur"
      },
      "seizeVerify(address,address,address,address,uint256)": {
        "notice": "Validates seize and reverts on rejection. May emit logs."
      },
      "transferAllowed(address,address,address,uint256)": {
        "notice": "Checks if the account should be allowed to transfer tokens in the given market"
      },
      "transferVerify(address,address,address,uint256)": {
        "notice": "Validates transfer and reverts on rejection. May emit logs."
      },
      "updateContributorRewards(address)": {
        "notice": "Calculate additional accrued JLEND for a contributor since last accrual"
      }
    },
    "version": 1
  },
  "storageLayout": {
    "storage": [
      {
        "astId": 8660,
        "contract": "contracts/Comptroller.sol:Comptroller",
        "label": "admin",
        "offset": 0,
        "slot": "0",
        "type": "t_address"
      },
      {
        "astId": 8663,
        "contract": "contracts/Comptroller.sol:Comptroller",
        "label": "pendingAdmin",
        "offset": 0,
        "slot": "1",
        "type": "t_address"
      },
      {
        "astId": 8666,
        "contract": "contracts/Comptroller.sol:Comptroller",
        "label": "comptrollerImplementation",
        "offset": 0,
        "slot": "2",
        "type": "t_address"
      },
      {
        "astId": 8669,
        "contract": "contracts/Comptroller.sol:Comptroller",
        "label": "pendingComptrollerImplementation",
        "offset": 0,
        "slot": "3",
        "type": "t_address"
      },
      {
        "astId": 8676,
        "contract": "contracts/Comptroller.sol:Comptroller",
        "label": "oracle",
        "offset": 0,
        "slot": "4",
        "type": "t_contract(PriceOracle)23723"
      },
      {
        "astId": 8679,
        "contract": "contracts/Comptroller.sol:Comptroller",
        "label": "closeFactorMantissa",
        "offset": 0,
        "slot": "5",
        "type": "t_uint256"
      },
      {
        "astId": 8682,
        "contract": "contracts/Comptroller.sol:Comptroller",
        "label": "liquidationIncentiveMantissa",
        "offset": 0,
        "slot": "6",
        "type": "t_uint256"
      },
      {
        "astId": 8685,
        "contract": "contracts/Comptroller.sol:Comptroller",
        "label": "maxAssets",
        "offset": 0,
        "slot": "7",
        "type": "t_uint256"
      },
      {
        "astId": 8692,
        "contract": "contracts/Comptroller.sol:Comptroller",
        "label": "accountAssets",
        "offset": 0,
        "slot": "8",
        "type": "t_mapping(t_address,t_array(t_contract(JToken)21058)dyn_storage)"
      },
      {
        "astId": 8712,
        "contract": "contracts/Comptroller.sol:Comptroller",
        "label": "markets",
        "offset": 0,
        "slot": "9",
        "type": "t_mapping(t_address,t_struct(Market)8706_storage)"
      },
      {
        "astId": 8715,
        "contract": "contracts/Comptroller.sol:Comptroller",
        "label": "pauseGuardian",
        "offset": 0,
        "slot": "10",
        "type": "t_address"
      },
      {
        "astId": 8717,
        "contract": "contracts/Comptroller.sol:Comptroller",
        "label": "_mintGuardianPaused",
        "offset": 20,
        "slot": "10",
        "type": "t_bool"
      },
      {
        "astId": 8719,
        "contract": "contracts/Comptroller.sol:Comptroller",
        "label": "_borrowGuardianPaused",
        "offset": 21,
        "slot": "10",
        "type": "t_bool"
      },
      {
        "astId": 8721,
        "contract": "contracts/Comptroller.sol:Comptroller",
        "label": "transferGuardianPaused",
        "offset": 22,
        "slot": "10",
        "type": "t_bool"
      },
      {
        "astId": 8723,
        "contract": "contracts/Comptroller.sol:Comptroller",
        "label": "seizeGuardianPaused",
        "offset": 23,
        "slot": "10",
        "type": "t_bool"
      },
      {
        "astId": 8727,
        "contract": "contracts/Comptroller.sol:Comptroller",
        "label": "mintGuardianPaused",
        "offset": 0,
        "slot": "11",
        "type": "t_mapping(t_address,t_bool)"
      },
      {
        "astId": 8731,
        "contract": "contracts/Comptroller.sol:Comptroller",
        "label": "borrowGuardianPaused",
        "offset": 0,
        "slot": "12",
        "type": "t_mapping(t_address,t_bool)"
      },
      {
        "astId": 8744,
        "contract": "contracts/Comptroller.sol:Comptroller",
        "label": "allMarkets",
        "offset": 0,
        "slot": "13",
        "type": "t_array(t_contract(JToken)21058)dyn_storage"
      },
      {
        "astId": 8747,
        "contract": "contracts/Comptroller.sol:Comptroller",
        "label": "jLendRate",
        "offset": 0,
        "slot": "14",
        "type": "t_uint256"
      },
      {
        "astId": 8752,
        "contract": "contracts/Comptroller.sol:Comptroller",
        "label": "jLendSpeeds",
        "offset": 0,
        "slot": "15",
        "type": "t_mapping(t_address,t_uint256)"
      },
      {
        "astId": 8758,
        "contract": "contracts/Comptroller.sol:Comptroller",
        "label": "jLendSupplyState",
        "offset": 0,
        "slot": "16",
        "type": "t_mapping(t_address,t_struct(JLendMarketState)8739_storage)"
      },
      {
        "astId": 8764,
        "contract": "contracts/Comptroller.sol:Comptroller",
        "label": "jLendBorrowState",
        "offset": 0,
        "slot": "17",
        "type": "t_mapping(t_address,t_struct(JLendMarketState)8739_storage)"
      },
      {
        "astId": 8771,
        "contract": "contracts/Comptroller.sol:Comptroller",
        "label": "jLendSupplierIndex",
        "offset": 0,
        "slot": "18",
        "type": "t_mapping(t_address,t_mapping(t_address,t_uint256))"
      },
      {
        "astId": 8778,
        "contract": "contracts/Comptroller.sol:Comptroller",
        "label": "jLendBorrowerIndex",
        "offset": 0,
        "slot": "19",
        "type": "t_mapping(t_address,t_mapping(t_address,t_uint256))"
      },
      {
        "astId": 8783,
        "contract": "contracts/Comptroller.sol:Comptroller",
        "label": "jLendAccrued",
        "offset": 0,
        "slot": "20",
        "type": "t_mapping(t_address,t_uint256)"
      },
      {
        "astId": 8788,
        "contract": "contracts/Comptroller.sol:Comptroller",
        "label": "borrowCapGuardian",
        "offset": 0,
        "slot": "21",
        "type": "t_address"
      },
      {
        "astId": 8792,
        "contract": "contracts/Comptroller.sol:Comptroller",
        "label": "borrowCaps",
        "offset": 0,
        "slot": "22",
        "type": "t_mapping(t_address,t_uint256)"
      },
      {
        "astId": 8800,
        "contract": "contracts/Comptroller.sol:Comptroller",
        "label": "jLendContributorSpeeds",
        "offset": 0,
        "slot": "23",
        "type": "t_mapping(t_address,t_uint256)"
      },
      {
        "astId": 8805,
        "contract": "contracts/Comptroller.sol:Comptroller",
        "label": "lastContributorBlock",
        "offset": 0,
        "slot": "24",
        "type": "t_mapping(t_address,t_uint256)"
      },
      {
        "astId": 8813,
        "contract": "contracts/Comptroller.sol:Comptroller",
        "label": "jLendBorrowSpeeds",
        "offset": 0,
        "slot": "25",
        "type": "t_mapping(t_address,t_uint256)"
      },
      {
        "astId": 8818,
        "contract": "contracts/Comptroller.sol:Comptroller",
        "label": "jLendSupplySpeeds",
        "offset": 0,
        "slot": "26",
        "type": "t_mapping(t_address,t_uint256)"
      },
      {
        "astId": 8824,
        "contract": "contracts/Comptroller.sol:Comptroller",
        "label": "proposal65FixExecuted",
        "offset": 0,
        "slot": "27",
        "type": "t_bool"
      },
      {
        "astId": 8829,
        "contract": "contracts/Comptroller.sol:Comptroller",
        "label": "jLendReceivable",
        "offset": 0,
        "slot": "28",
        "type": "t_mapping(t_address,t_uint256)"
      }
    ],
    "types": {
      "t_address": {
        "encoding": "inplace",
        "label": "address",
        "numberOfBytes": "20"
      },
      "t_array(t_contract(JToken)21058)dyn_storage": {
        "base": "t_contract(JToken)21058",
        "encoding": "dynamic_array",
        "label": "contract JToken[]",
        "numberOfBytes": "32"
      },
      "t_bool": {
        "encoding": "inplace",
        "label": "bool",
        "numberOfBytes": "1"
      },
      "t_contract(JToken)21058": {
        "encoding": "inplace",
        "label": "contract JToken",
        "numberOfBytes": "20"
      },
      "t_contract(PriceOracle)23723": {
        "encoding": "inplace",
        "label": "contract PriceOracle",
        "numberOfBytes": "20"
      },
      "t_mapping(t_address,t_array(t_contract(JToken)21058)dyn_storage)": {
        "encoding": "mapping",
        "key": "t_address",
        "label": "mapping(address => contract JToken[])",
        "numberOfBytes": "32",
        "value": "t_array(t_contract(JToken)21058)dyn_storage"
      },
      "t_mapping(t_address,t_bool)": {
        "encoding": "mapping",
        "key": "t_address",
        "label": "mapping(address => bool)",
        "numberOfBytes": "32",
        "value": "t_bool"
      },
      "t_mapping(t_address,t_mapping(t_address,t_uint256))": {
        "encoding": "mapping",
        "key": "t_address",
        "label": "mapping(address => mapping(address => uint256))",
        "numberOfBytes": "32",
        "value": "t_mapping(t_address,t_uint256)"
      },
      "t_mapping(t_address,t_struct(JLendMarketState)8739_storage)": {
        "encoding": "mapping",
        "key": "t_address",
        "label": "mapping(address => struct ComptrollerV3Storage.JLendMarketState)",
        "numberOfBytes": "32",
        "value": "t_struct(JLendMarketState)8739_storage"
      },
      "t_mapping(t_address,t_struct(Market)8706_storage)": {
        "encoding": "mapping",
        "key": "t_address",
        "label": "mapping(address => struct ComptrollerV2Storage.Market)",
        "numberOfBytes": "32",
        "value": "t_struct(Market)8706_storage"
      },
      "t_mapping(t_address,t_uint256)": {
        "encoding": "mapping",
        "key": "t_address",
        "label": "mapping(address => uint256)",
        "numberOfBytes": "32",
        "value": "t_uint256"
      },
      "t_struct(JLendMarketState)8739_storage": {
        "encoding": "inplace",
        "label": "struct ComptrollerV3Storage.JLendMarketState",
        "members": [
          {
            "astId": 8736,
            "contract": "contracts/Comptroller.sol:Comptroller",
            "label": "index",
            "offset": 0,
            "slot": "0",
            "type": "t_uint224"
          },
          {
            "astId": 8738,
            "contract": "contracts/Comptroller.sol:Comptroller",
            "label": "block",
            "offset": 28,
            "slot": "0",
            "type": "t_uint32"
          }
        ],
        "numberOfBytes": "32"
      },
      "t_struct(Market)8706_storage": {
        "encoding": "inplace",
        "label": "struct ComptrollerV2Storage.Market",
        "members": [
          {
            "astId": 8697,
            "contract": "contracts/Comptroller.sol:Comptroller",
            "label": "isListed",
            "offset": 0,
            "slot": "0",
            "type": "t_bool"
          },
          {
            "astId": 8699,
            "contract": "contracts/Comptroller.sol:Comptroller",
            "label": "collateralFactorMantissa",
            "offset": 0,
            "slot": "1",
            "type": "t_uint256"
          },
          {
            "astId": 8703,
            "contract": "contracts/Comptroller.sol:Comptroller",
            "label": "accountMembership",
            "offset": 0,
            "slot": "2",
            "type": "t_mapping(t_address,t_bool)"
          },
          {
            "astId": 8705,
            "contract": "contracts/Comptroller.sol:Comptroller",
            "label": "isJLended",
            "offset": 0,
            "slot": "3",
            "type": "t_bool"
          }
        ],
        "numberOfBytes": "128"
      },
      "t_uint224": {
        "encoding": "inplace",
        "label": "uint224",
        "numberOfBytes": "28"
      },
      "t_uint256": {
        "encoding": "inplace",
        "label": "uint256",
        "numberOfBytes": "32"
      },
      "t_uint32": {
        "encoding": "inplace",
        "label": "uint32",
        "numberOfBytes": "4"
      }
    }
  }
}