{
  "address": "0xca929F69826dE364BCd81AC9B5A48d997093BEa1",
  "abi": [
    {
      "inputs": [
        {
          "internalType": "contract ComptrollerLensInterface",
          "name": "comptroller",
          "type": "address"
        },
        {
          "internalType": "address",
          "name": "account",
          "type": "address"
        }
      ],
      "name": "getAccountLimits",
      "outputs": [
        {
          "components": [
            {
              "internalType": "contract JToken[]",
              "name": "markets",
              "type": "address[]"
            },
            {
              "internalType": "uint256",
              "name": "liquidity",
              "type": "uint256"
            },
            {
              "internalType": "uint256",
              "name": "shortfall",
              "type": "uint256"
            }
          ],
          "internalType": "struct JLendLens.AccountLimits",
          "name": "",
          "type": "tuple"
        }
      ],
      "stateMutability": "nonpayable",
      "type": "function"
    },
    {
      "inputs": [
        {
          "internalType": "contract GovernorBravoInterface",
          "name": "governor",
          "type": "address"
        },
        {
          "internalType": "uint256[]",
          "name": "proposalIds",
          "type": "uint256[]"
        }
      ],
      "name": "getGovBravoProposals",
      "outputs": [
        {
          "components": [
            {
              "internalType": "uint256",
              "name": "proposalId",
              "type": "uint256"
            },
            {
              "internalType": "address",
              "name": "proposer",
              "type": "address"
            },
            {
              "internalType": "uint256",
              "name": "eta",
              "type": "uint256"
            },
            {
              "internalType": "address[]",
              "name": "targets",
              "type": "address[]"
            },
            {
              "internalType": "uint256[]",
              "name": "values",
              "type": "uint256[]"
            },
            {
              "internalType": "string[]",
              "name": "signatures",
              "type": "string[]"
            },
            {
              "internalType": "bytes[]",
              "name": "calldatas",
              "type": "bytes[]"
            },
            {
              "internalType": "uint256",
              "name": "startBlock",
              "type": "uint256"
            },
            {
              "internalType": "uint256",
              "name": "endBlock",
              "type": "uint256"
            },
            {
              "internalType": "uint256",
              "name": "forVotes",
              "type": "uint256"
            },
            {
              "internalType": "uint256",
              "name": "againstVotes",
              "type": "uint256"
            },
            {
              "internalType": "uint256",
              "name": "abstainVotes",
              "type": "uint256"
            },
            {
              "internalType": "bool",
              "name": "canceled",
              "type": "bool"
            },
            {
              "internalType": "bool",
              "name": "executed",
              "type": "bool"
            }
          ],
          "internalType": "struct JLendLens.GovBravoProposal[]",
          "name": "",
          "type": "tuple[]"
        }
      ],
      "stateMutability": "view",
      "type": "function"
    },
    {
      "inputs": [
        {
          "internalType": "contract GovernorBravoInterface",
          "name": "governor",
          "type": "address"
        },
        {
          "internalType": "address",
          "name": "voter",
          "type": "address"
        },
        {
          "internalType": "uint256[]",
          "name": "proposalIds",
          "type": "uint256[]"
        }
      ],
      "name": "getGovBravoReceipts",
      "outputs": [
        {
          "components": [
            {
              "internalType": "uint256",
              "name": "proposalId",
              "type": "uint256"
            },
            {
              "internalType": "bool",
              "name": "hasVoted",
              "type": "bool"
            },
            {
              "internalType": "uint8",
              "name": "support",
              "type": "uint8"
            },
            {
              "internalType": "uint96",
              "name": "votes",
              "type": "uint96"
            }
          ],
          "internalType": "struct JLendLens.GovBravoReceipt[]",
          "name": "",
          "type": "tuple[]"
        }
      ],
      "stateMutability": "view",
      "type": "function"
    },
    {
      "inputs": [
        {
          "internalType": "contract GovernorAlpha",
          "name": "governor",
          "type": "address"
        },
        {
          "internalType": "uint256[]",
          "name": "proposalIds",
          "type": "uint256[]"
        }
      ],
      "name": "getGovProposals",
      "outputs": [
        {
          "components": [
            {
              "internalType": "uint256",
              "name": "proposalId",
              "type": "uint256"
            },
            {
              "internalType": "address",
              "name": "proposer",
              "type": "address"
            },
            {
              "internalType": "uint256",
              "name": "eta",
              "type": "uint256"
            },
            {
              "internalType": "address[]",
              "name": "targets",
              "type": "address[]"
            },
            {
              "internalType": "uint256[]",
              "name": "values",
              "type": "uint256[]"
            },
            {
              "internalType": "string[]",
              "name": "signatures",
              "type": "string[]"
            },
            {
              "internalType": "bytes[]",
              "name": "calldatas",
              "type": "bytes[]"
            },
            {
              "internalType": "uint256",
              "name": "startBlock",
              "type": "uint256"
            },
            {
              "internalType": "uint256",
              "name": "endBlock",
              "type": "uint256"
            },
            {
              "internalType": "uint256",
              "name": "forVotes",
              "type": "uint256"
            },
            {
              "internalType": "uint256",
              "name": "againstVotes",
              "type": "uint256"
            },
            {
              "internalType": "bool",
              "name": "canceled",
              "type": "bool"
            },
            {
              "internalType": "bool",
              "name": "executed",
              "type": "bool"
            }
          ],
          "internalType": "struct JLendLens.GovProposal[]",
          "name": "",
          "type": "tuple[]"
        }
      ],
      "stateMutability": "view",
      "type": "function"
    },
    {
      "inputs": [
        {
          "internalType": "contract GovernorAlpha",
          "name": "governor",
          "type": "address"
        },
        {
          "internalType": "address",
          "name": "voter",
          "type": "address"
        },
        {
          "internalType": "uint256[]",
          "name": "proposalIds",
          "type": "uint256[]"
        }
      ],
      "name": "getGovReceipts",
      "outputs": [
        {
          "components": [
            {
              "internalType": "uint256",
              "name": "proposalId",
              "type": "uint256"
            },
            {
              "internalType": "bool",
              "name": "hasVoted",
              "type": "bool"
            },
            {
              "internalType": "bool",
              "name": "support",
              "type": "bool"
            },
            {
              "internalType": "uint96",
              "name": "votes",
              "type": "uint96"
            }
          ],
          "internalType": "struct JLendLens.GovReceipt[]",
          "name": "",
          "type": "tuple[]"
        }
      ],
      "stateMutability": "view",
      "type": "function"
    },
    {
      "inputs": [
        {
          "internalType": "contract JLEND",
          "name": "jLend",
          "type": "address"
        },
        {
          "internalType": "address",
          "name": "account",
          "type": "address"
        }
      ],
      "name": "getJLendBalanceMetadata",
      "outputs": [
        {
          "components": [
            {
              "internalType": "uint256",
              "name": "balance",
              "type": "uint256"
            },
            {
              "internalType": "uint256",
              "name": "votes",
              "type": "uint256"
            },
            {
              "internalType": "address",
              "name": "delegate",
              "type": "address"
            }
          ],
          "internalType": "struct JLendLens.JLendBalanceMetadata",
          "name": "",
          "type": "tuple"
        }
      ],
      "stateMutability": "view",
      "type": "function"
    },
    {
      "inputs": [
        {
          "internalType": "contract JLEND",
          "name": "jLend",
          "type": "address"
        },
        {
          "internalType": "contract ComptrollerLensInterface",
          "name": "comptroller",
          "type": "address"
        },
        {
          "internalType": "address",
          "name": "account",
          "type": "address"
        }
      ],
      "name": "getJLendBalanceMetadataExt",
      "outputs": [
        {
          "components": [
            {
              "internalType": "uint256",
              "name": "balance",
              "type": "uint256"
            },
            {
              "internalType": "uint256",
              "name": "votes",
              "type": "uint256"
            },
            {
              "internalType": "address",
              "name": "delegate",
              "type": "address"
            },
            {
              "internalType": "uint256",
              "name": "allocated",
              "type": "uint256"
            }
          ],
          "internalType": "struct JLendLens.JLendBalanceMetadataExt",
          "name": "",
          "type": "tuple"
        }
      ],
      "stateMutability": "nonpayable",
      "type": "function"
    },
    {
      "inputs": [
        {
          "internalType": "contract JLEND",
          "name": "jLend",
          "type": "address"
        },
        {
          "internalType": "address",
          "name": "account",
          "type": "address"
        },
        {
          "internalType": "uint32[]",
          "name": "blockNumbers",
          "type": "uint32[]"
        }
      ],
      "name": "getJLendVotes",
      "outputs": [
        {
          "components": [
            {
              "internalType": "uint256",
              "name": "blockNumber",
              "type": "uint256"
            },
            {
              "internalType": "uint256",
              "name": "votes",
              "type": "uint256"
            }
          ],
          "internalType": "struct JLendLens.JLendVotes[]",
          "name": "",
          "type": "tuple[]"
        }
      ],
      "stateMutability": "view",
      "type": "function"
    },
    {
      "inputs": [
        {
          "internalType": "contract JToken",
          "name": "jToken",
          "type": "address"
        },
        {
          "internalType": "address payable",
          "name": "account",
          "type": "address"
        }
      ],
      "name": "jTokenBalances",
      "outputs": [
        {
          "components": [
            {
              "internalType": "address",
              "name": "jToken",
              "type": "address"
            },
            {
              "internalType": "uint256",
              "name": "balanceOf",
              "type": "uint256"
            },
            {
              "internalType": "uint256",
              "name": "borrowBalanceCurrent",
              "type": "uint256"
            },
            {
              "internalType": "uint256",
              "name": "balanceOfUnderlying",
              "type": "uint256"
            },
            {
              "internalType": "uint256",
              "name": "tokenBalance",
              "type": "uint256"
            },
            {
              "internalType": "uint256",
              "name": "tokenAllowance",
              "type": "uint256"
            }
          ],
          "internalType": "struct JLendLens.JTokenBalances",
          "name": "",
          "type": "tuple"
        }
      ],
      "stateMutability": "nonpayable",
      "type": "function"
    },
    {
      "inputs": [
        {
          "internalType": "contract JToken[]",
          "name": "jTokens",
          "type": "address[]"
        },
        {
          "internalType": "address payable",
          "name": "account",
          "type": "address"
        }
      ],
      "name": "jTokenBalancesAll",
      "outputs": [
        {
          "components": [
            {
              "internalType": "address",
              "name": "jToken",
              "type": "address"
            },
            {
              "internalType": "uint256",
              "name": "balanceOf",
              "type": "uint256"
            },
            {
              "internalType": "uint256",
              "name": "borrowBalanceCurrent",
              "type": "uint256"
            },
            {
              "internalType": "uint256",
              "name": "balanceOfUnderlying",
              "type": "uint256"
            },
            {
              "internalType": "uint256",
              "name": "tokenBalance",
              "type": "uint256"
            },
            {
              "internalType": "uint256",
              "name": "tokenAllowance",
              "type": "uint256"
            }
          ],
          "internalType": "struct JLendLens.JTokenBalances[]",
          "name": "",
          "type": "tuple[]"
        }
      ],
      "stateMutability": "nonpayable",
      "type": "function"
    },
    {
      "inputs": [
        {
          "internalType": "contract JToken",
          "name": "jToken",
          "type": "address"
        }
      ],
      "name": "jTokenMetadata",
      "outputs": [
        {
          "components": [
            {
              "internalType": "address",
              "name": "jToken",
              "type": "address"
            },
            {
              "internalType": "uint256",
              "name": "exchangeRateCurrent",
              "type": "uint256"
            },
            {
              "internalType": "uint256",
              "name": "supplyRatePerBlock",
              "type": "uint256"
            },
            {
              "internalType": "uint256",
              "name": "borrowRatePerBlock",
              "type": "uint256"
            },
            {
              "internalType": "uint256",
              "name": "reserveFactorMantissa",
              "type": "uint256"
            },
            {
              "internalType": "uint256",
              "name": "totalBorrows",
              "type": "uint256"
            },
            {
              "internalType": "uint256",
              "name": "totalReserves",
              "type": "uint256"
            },
            {
              "internalType": "uint256",
              "name": "totalSupply",
              "type": "uint256"
            },
            {
              "internalType": "uint256",
              "name": "totalCash",
              "type": "uint256"
            },
            {
              "internalType": "bool",
              "name": "isListed",
              "type": "bool"
            },
            {
              "internalType": "uint256",
              "name": "collateralFactorMantissa",
              "type": "uint256"
            },
            {
              "internalType": "address",
              "name": "underlyingAssetAddress",
              "type": "address"
            },
            {
              "internalType": "uint256",
              "name": "jTokenDecimals",
              "type": "uint256"
            },
            {
              "internalType": "uint256",
              "name": "underlyingDecimals",
              "type": "uint256"
            },
            {
              "internalType": "uint256",
              "name": "jLendSupplySpeed",
              "type": "uint256"
            },
            {
              "internalType": "uint256",
              "name": "jLendBorrowSpeed",
              "type": "uint256"
            },
            {
              "internalType": "uint256",
              "name": "borrowCap",
              "type": "uint256"
            }
          ],
          "internalType": "struct JLendLens.JTokenMetadata",
          "name": "",
          "type": "tuple"
        }
      ],
      "stateMutability": "nonpayable",
      "type": "function"
    },
    {
      "inputs": [
        {
          "internalType": "contract JToken[]",
          "name": "jTokens",
          "type": "address[]"
        }
      ],
      "name": "jTokenMetadataAll",
      "outputs": [
        {
          "components": [
            {
              "internalType": "address",
              "name": "jToken",
              "type": "address"
            },
            {
              "internalType": "uint256",
              "name": "exchangeRateCurrent",
              "type": "uint256"
            },
            {
              "internalType": "uint256",
              "name": "supplyRatePerBlock",
              "type": "uint256"
            },
            {
              "internalType": "uint256",
              "name": "borrowRatePerBlock",
              "type": "uint256"
            },
            {
              "internalType": "uint256",
              "name": "reserveFactorMantissa",
              "type": "uint256"
            },
            {
              "internalType": "uint256",
              "name": "totalBorrows",
              "type": "uint256"
            },
            {
              "internalType": "uint256",
              "name": "totalReserves",
              "type": "uint256"
            },
            {
              "internalType": "uint256",
              "name": "totalSupply",
              "type": "uint256"
            },
            {
              "internalType": "uint256",
              "name": "totalCash",
              "type": "uint256"
            },
            {
              "internalType": "bool",
              "name": "isListed",
              "type": "bool"
            },
            {
              "internalType": "uint256",
              "name": "collateralFactorMantissa",
              "type": "uint256"
            },
            {
              "internalType": "address",
              "name": "underlyingAssetAddress",
              "type": "address"
            },
            {
              "internalType": "uint256",
              "name": "jTokenDecimals",
              "type": "uint256"
            },
            {
              "internalType": "uint256",
              "name": "underlyingDecimals",
              "type": "uint256"
            },
            {
              "internalType": "uint256",
              "name": "jLendSupplySpeed",
              "type": "uint256"
            },
            {
              "internalType": "uint256",
              "name": "jLendBorrowSpeed",
              "type": "uint256"
            },
            {
              "internalType": "uint256",
              "name": "borrowCap",
              "type": "uint256"
            }
          ],
          "internalType": "struct JLendLens.JTokenMetadata[]",
          "name": "",
          "type": "tuple[]"
        }
      ],
      "stateMutability": "nonpayable",
      "type": "function"
    },
    {
      "inputs": [
        {
          "internalType": "contract JToken",
          "name": "jToken",
          "type": "address"
        }
      ],
      "name": "jTokenUnderlyingPrice",
      "outputs": [
        {
          "components": [
            {
              "internalType": "address",
              "name": "jToken",
              "type": "address"
            },
            {
              "internalType": "uint256",
              "name": "underlyingPrice",
              "type": "uint256"
            }
          ],
          "internalType": "struct JLendLens.JTokenUnderlyingPrice",
          "name": "",
          "type": "tuple"
        }
      ],
      "stateMutability": "nonpayable",
      "type": "function"
    },
    {
      "inputs": [
        {
          "internalType": "contract JToken[]",
          "name": "jTokens",
          "type": "address[]"
        }
      ],
      "name": "jTokenUnderlyingPriceAll",
      "outputs": [
        {
          "components": [
            {
              "internalType": "address",
              "name": "jToken",
              "type": "address"
            },
            {
              "internalType": "uint256",
              "name": "underlyingPrice",
              "type": "uint256"
            }
          ],
          "internalType": "struct JLendLens.JTokenUnderlyingPrice[]",
          "name": "",
          "type": "tuple[]"
        }
      ],
      "stateMutability": "nonpayable",
      "type": "function"
    }
  ],
  "transactionHash": "0x68d3e59e60bf6d631eb8bdac116fb3c642e743dc4224480c8373d782bd46341f",
  "args": [],
  "numDeployments": 1,
  "solcInputHash": "cac86029a31a1be5a662eb0d1a16a703",
  "bytecode": "0x608060405234801561001057600080fd5b50613a0a806100206000396000f3fe608060405234801561001057600080fd5b50600436106100e95760003560e01c806375738b9b1161008c5780638861311111610066578063886131111461028457806396994869146102a4578063995ed99f146102c4578063d9ca3c9c146102e457600080fd5b806375738b9b1461022457806375d80e90146102445780637dd8f6d91461026457600080fd5b8063455ffd7f116100c8578063455ffd7f146101575780634affc33e146101775780634c45802c146101b557806357553afb1461020457600080fd5b8062673b0c146100ee57806337757ad41461011757806343c811cc14610137575b600080fd5b6101016100fc3660046127ff565b610304565b60405161010e9190612895565b60405180910390f35b61012a6101253660046128e3565b6103d4565b60405161010e9190612947565b61014a610145366004612ab5565b610570565b60405161010e9190612b16565b61016a610165366004612b7b565b610712565b60405161010e9190612b98565b61018a610185366004612bb8565b61087c565b604080518251815260208084015190820152918101516001600160a01b03169082015260600161010e565b6101c86101c3366004612bf1565b610a1f565b60405161010e919081518152602080830151908201526040808301516001600160a01b0316908201526060918201519181019190915260800190565b610217610212366004612bb8565b610d81565b60405161010e9190612c31565b610237610232366004612c3f565b611114565b60405161010e9190612c80565b610257610252366004612cd3565b6111e7565b60405161010e9190612e33565b610277610272366004612bb8565b61143f565b60405161010e9190612f6d565b610297610292366004612c3f565b611579565b60405161010e91906130a8565b6102b76102b2366004612cd3565b611637565b60405161010e91906130eb565b6102d76102d2366004612ab5565b611881565b60405161010e919061320c565b6102f76102f2366004612b7b565b611a22565b60405161010e9190613270565b6060826000816001600160401b0381111561032157610321612996565b60405190808252806020026020018201604052801561035a57816020015b6103476126cc565b81526020019060019003908161033f5790505b50905060005b828110156103c85761039887878381811061037d5761037d61327f565b90506020020160208101906103929190612b7b565b86610d81565b8282815181106103aa576103aa61327f565b602002602001018190525080806103c0906132ab565b915050610360565b509150505b9392505050565b60606000826001600160401b038111156103f0576103f0612996565b60405190808252806020026020018201604052801561043557816020015b604080518082019091526000808252602082015281526020019060019003908161040e5790505b50905060005b838110156105665760405180604001604052808686848181106104605761046061327f565b905060200201602081019061047591906132c4565b63ffffffff168152602001886001600160a01b031663782d6fe1898989878181106104a2576104a261327f565b90506020020160208101906104b791906132c4565b6040516001600160e01b031960e085901b1681526001600160a01b03909216600483015263ffffffff166024820152604401602060405180830381865afa158015610506573d6000803e3d6000fd5b505050506040513d601f19601f8201168201806040525081019061052a9190613306565b6001600160601b03168152508282815181106105485761054861327f565b6020026020010181905250808061055e906132ab565b91505061043b565b5095945050505050565b80516060906000816001600160401b0381111561058f5761058f612996565b6040519080825280602002602001820160405280156105e157816020015b6040805160808101825260008082526020808301829052928201819052606082015282526000199092019101816105ad5790505b50905060005b828110156103c8576000876001600160a01b031663e23a9a528784815181106106125761061261327f565b6020026020010151896040518363ffffffff1660e01b815260040161064a9291909182526001600160a01b0316602082015260400190565b606060405180830381865afa158015610667573d6000803e3d6000fd5b505050506040513d601f19601f8201168201806040525081019061068b9190613342565b905060405180608001604052808784815181106106aa576106aa61327f565b60200260200101518152602001826000015115158152602001826020015160ff16815260200182604001516001600160601b03168152508383815181106106f3576106f361327f565b602002602001018190525050808061070a906132ab565b9150506105e7565b60408051808201909152600080825260208201526000826001600160a01b0316635fe3b5676040518163ffffffff1660e01b8152600401602060405180830381865afa158015610766573d6000803e3d6000fd5b505050506040513d601f19601f8201168201806040525081019061078a9190613390565b90506000816001600160a01b0316637dc0d1d06040518163ffffffff1660e01b8152600401602060405180830381865afa1580156107cc573d6000803e3d6000fd5b505050506040513d601f19601f820116820180604052508101906107f09190613390565b6040805180820182526001600160a01b03808816808352925163fc57d4df60e01b815260048101939093529293509160208301919084169063fc57d4df90602401602060405180830381865afa15801561084e573d6000803e3d6000fd5b505050506040513d601f19601f8201168201806040525081019061087291906133ad565b9052949350505050565b6108a96040518060600160405280600081526020016000815260200160006001600160a01b031681525090565b6040805160608101918290526370a0823160e01b9091526001600160a01b038381166064830152819085166370a0823160848301602060405180830381865afa1580156108fa573d6000803e3d6000fd5b505050506040513d601f19601f8201168201806040525081019061091e91906133ad565b815260405163b4b5ea5760e01b81526001600160a01b03858116600483015260209092019186169063b4b5ea5790602401602060405180830381865afa15801561096c573d6000803e3d6000fd5b505050506040513d601f19601f820116820180604052508101906109909190613306565b6001600160601b03168152604051632c3e6f0f60e11b81526001600160a01b03858116600483015260209092019186169063587cde1e90602401602060405180830381865afa1580156109e7573d6000803e3d6000fd5b505050506040513d601f19601f82011682018060405250810190610a0b9190613390565b6001600160a01b0316905290505b92915050565b610a536040518060800160405280600081526020016000815260200160006001600160a01b03168152602001600081525090565b6040516370a0823160e01b81526001600160a01b038381166004830152600091908616906370a0823190602401602060405180830381865afa158015610a9d573d6000803e3d6000fd5b505050506040513d601f19601f82011682018060405250810190610ac191906133ad565b604051632dd85f8d60e01b81526001600160a01b03858116600483015291925090851690632dd85f8d90602401600060405180830381600087803b158015610b0857600080fd5b505af1158015610b1c573d6000803e3d6000fd5b50506040516370a0823160e01b81526001600160a01b03868116600483015260009350881691506370a0823190602401602060405180830381865afa158015610b69573d6000803e3d6000fd5b505050506040513d601f19601f82011682018060405250810190610b8d91906133ad565b60405163dd68f89560e01b81526001600160a01b03868116600483015291925060009187169063dd68f89590602401602060405180830381865afa158015610bd9573d6000803e3d6000fd5b505050506040513d601f19601f82011682018060405250810190610bfd91906133ad565b90506000610c3382846040518060400160405280600f81526020016e1cdd5b481a93195b99081d1bdd185b608a1b815250612178565b90506000610c6782866040518060400160405280600d81526020016c1cdd5888185b1b1bd8d85d1959609a1b8152506121b2565b60408051608081018252878152905163b4b5ea5760e01b81526001600160a01b038a8116600483015292935090916020830191908c169063b4b5ea5790602401602060405180830381865afa158015610cc4573d6000803e3d6000fd5b505050506040513d601f19601f82011682018060405250810190610ce89190613306565b6001600160601b03168152604051632c3e6f0f60e11b81526001600160a01b038a811660048301526020909201918c169063587cde1e90602401602060405180830381865afa158015610d3f573d6000803e3d6000fd5b505050506040513d601f19601f82011682018060405250810190610d639190613390565b6001600160a01b031681526020019190915298975050505050505050565b610d896126cc565b6040516370a0823160e01b81526001600160a01b038381166004830152600091908516906370a0823190602401602060405180830381865afa158015610dd3573d6000803e3d6000fd5b505050506040513d601f19601f82011682018060405250810190610df791906133ad565b6040516305eff7ef60e21b81526001600160a01b0385811660048301529192506000918616906317bfdfbc906024016020604051808303816000875af1158015610e45573d6000803e3d6000fd5b505050506040513d601f19601f82011682018060405250810190610e6991906133ad565b604051633af9e66960e01b81526001600160a01b038681166004830152919250600091871690633af9e669906024016020604051808303816000875af1158015610eb7573d6000803e3d6000fd5b505050506040513d601f19601f82011682018060405250810190610edb91906133ad565b9050600080610f6b886001600160a01b03166395d89b416040518163ffffffff1660e01b8152600401600060405180830381865afa158015610f21573d6000803e3d6000fd5b505050506040513d6000823e601f3d908101601f19168201604052610f49919081019061343f565b604051806040016040528060048152602001636a4a424360e01b8152506121ec565b15610f855750506001600160a01b038516803190316110d7565b60008890506000816001600160a01b0316636f307dc36040518163ffffffff1660e01b8152600401602060405180830381865afa158015610fca573d6000803e3d6000fd5b505050506040513d601f19601f82011682018060405250810190610fee9190613390565b6040516370a0823160e01b81526001600160a01b038b81166004830152919250908216906370a0823190602401602060405180830381865afa158015611038573d6000803e3d6000fd5b505050506040513d601f19601f8201168201806040525081019061105c91906133ad565b604051636eb1769f60e11b81526001600160a01b038b811660048301528c811660248301529195509082169063dd62ed3e90604401602060405180830381865afa1580156110ae573d6000803e3d6000fd5b505050506040513d601f19601f820116820180604052508101906110d291906133ad565b925050505b6040805160c0810182526001600160a01b039990991689526020890195909552938701929092526060860152608085015260a08401525090919050565b6060816000816001600160401b0381111561113157611131612996565b60405190808252806020026020018201604052801561117657816020015b604080518082019091526000808252602082015281526020019060019003908161114f5790505b50905060005b828110156111de576111ae8686838181106111995761119961327f565b90506020020160208101906101659190612b7b565b8282815181106111c0576111c061327f565b602002602001018190525080806111d6906132ab565b91505061117c565b50949350505050565b60606000826001600160401b0381111561120357611203612996565b6040519080825280602002602001820160405280156112b357816020015b6112a0604051806101c001604052806000815260200160006001600160a01b03168152602001600081526020016060815260200160608152602001606081526020016060815260200160008152602001600081526020016000815260200160008152602001600081526020016000151581526020016000151581525090565b8152602001906001900390816112215790505b50905060005b838110156111de57600080600080896001600160a01b031663328dd9828a8a888181106112e8576112e861327f565b905060200201356040518263ffffffff1660e01b815260040161130d91815260200190565b600060405180830381865afa15801561132a573d6000803e3d6000fd5b505050506040513d6000823e601f3d908101601f1916820160405261135291908101906135e9565b9350935093509350604051806101c001604052806000815260200160006001600160a01b03168152602001600081526020018581526020018481526020018381526020018281526020016000815260200160008152602001600081526020016000815260200160008152602001600015158152602001600015158152508686815181106113e1576113e161327f565b60200260200101819052506114288686815181106114015761140161327f565b60200260200101518b8b8b8981811061141c5761141c61327f565b90506020020135612245565b505050508080611437906132ab565b9150506112b9565b61146360405180606001604052806060815260200160008152602001600081525090565b604051635ec88c7960e01b81526001600160a01b0383811660048301526000918291829190871690635ec88c7990602401606060405180830381865afa1580156114b1573d6000803e3d6000fd5b505050506040513d601f19601f820116820180604052508101906114d591906136f6565b925092509250826000146114e857600080fd5b604080516060810191829052632aff3bff60e21b9091526001600160a01b0386811660648301528190881663abfceffc60848301600060405180830381865afa158015611539573d6000803e3d6000fd5b505050506040513d6000823e601f3d908101601f191682016040526115619190810190613724565b81526020810193909352604090920152949350505050565b6060816000816001600160401b0381111561159657611596612996565b6040519080825280602002602001820160405280156115cf57816020015b6115bc61270b565b8152602001906001900390816115b45790505b50905060005b828110156111de576116078686838181106115f2576115f261327f565b90506020020160208101906102f29190612b7b565b8282815181106116195761161961327f565b6020026020010181905250808061162f906132ab565b9150506115d5565b60606000826001600160401b0381111561165357611653612996565b6040519080825280602002602001820160405280156116fc57816020015b6116e9604051806101a001604052806000815260200160006001600160a01b031681526020016000815260200160608152602001606081526020016060815260200160608152602001600081526020016000815260200160008152602001600081526020016000151581526020016000151581525090565b8152602001906001900390816116715790505b50905060005b838110156111de57600080600080896001600160a01b031663328dd9828a8a888181106117315761173161327f565b905060200201356040518263ffffffff1660e01b815260040161175691815260200190565b600060405180830381865afa158015611773573d6000803e3d6000fd5b505050506040513d6000823e601f3d908101601f1916820160405261179b91908101906135e9565b9350935093509350604051806101a001604052806000815260200160006001600160a01b031681526020016000815260200185815260200184815260200183815260200182815260200160008152602001600081526020016000815260200160008152602001600015158152602001600015158152508686815181106118235761182361327f565b602002602001018190525061186a8686815181106118435761184361327f565b60200260200101518b8b8b8981811061185e5761185e61327f565b90506020020135612330565b505050508080611879906132ab565b915050611702565b80516060906000816001600160401b038111156118a0576118a0612996565b6040519080825280602002602001820160405280156118f257816020015b6040805160808101825260008082526020808301829052928201819052606082015282526000199092019101816118be5790505b50905060005b828110156103c8576000876001600160a01b031663e23a9a528784815181106119235761192361327f565b6020026020010151896040518363ffffffff1660e01b815260040161195b9291909182526001600160a01b0316602082015260400190565b606060405180830381865afa158015611978573d6000803e3d6000fd5b505050506040513d601f19601f8201168201806040525081019061199c91906137bd565b905060405180608001604052808784815181106119bb576119bb61327f565b6020026020010151815260200182600001511515815260200182602001511515815260200182604001516001600160601b0316815250838381518110611a0357611a0361327f565b6020026020010181905250508080611a1a906132ab565b9150506118f8565b611a2a61270b565b6000826001600160a01b031663bd6d894d6040518163ffffffff1660e01b81526004016020604051808303816000875af1158015611a6c573d6000803e3d6000fd5b505050506040513d601f19601f82011682018060405250810190611a9091906133ad565b90506000836001600160a01b0316635fe3b5676040518163ffffffff1660e01b8152600401602060405180830381865afa158015611ad2573d6000803e3d6000fd5b505050506040513d601f19601f82011682018060405250810190611af69190613390565b604051638e8f294b60e01b81526001600160a01b038681166004830152919250600091829190841690638e8f294b906024016040805180830381865afa158015611b44573d6000803e3d6000fd5b505050506040513d601f19601f82011682018060405250810190611b6891906137ee565b91509150600080611bb0886001600160a01b03166395d89b416040518163ffffffff1660e01b8152600401600060405180830381865afa158015610f21573d6000803e3d6000fd5b15611bc15750600090506012611cf4565b6000889050806001600160a01b0316636f307dc36040518163ffffffff1660e01b8152600401602060405180830381865afa158015611c04573d6000803e3d6000fd5b505050506040513d601f19601f82011682018060405250810190611c289190613390565b9250806001600160a01b0316636f307dc36040518163ffffffff1660e01b8152600401602060405180830381865afa158015611c68573d6000803e3d6000fd5b505050506040513d601f19601f82011682018060405250810190611c8c9190613390565b6001600160a01b031663313ce5676040518163ffffffff1660e01b8152600401602060405180830381865afa158015611cc9573d6000803e3d6000fd5b505050506040513d601f19601f82011682018060405250810190611ced919061381a565b60ff169150505b600080611d01878b612449565b9150915060008080896001600160a01b0316634a58443260e01b8e604051602001611d3b91906001600160a01b0391909116815260200190565b60408051601f1981840301815290829052611d599291602001613835565b60408051601f1981840301815290829052611d7391613866565b6000604051808303816000865af19150503d8060008114611db0576040519150601f19603f3d011682016040523d82523d6000602084013e611db5565b606091505b50915091508115611dd75780806020019051810190611dd491906133ad565b92505b6040518061022001604052808e6001600160a01b031681526020018c81526020018e6001600160a01b031663ae9d70b06040518163ffffffff1660e01b8152600401602060405180830381865afa158015611e36573d6000803e3d6000fd5b505050506040513d601f19601f82011682018060405250810190611e5a91906133ad565b81526020018e6001600160a01b031663f8f9da286040518163ffffffff1660e01b8152600401602060405180830381865afa158015611e9d573d6000803e3d6000fd5b505050506040513d601f19601f82011682018060405250810190611ec191906133ad565b81526020018e6001600160a01b031663173b99046040518163ffffffff1660e01b8152600401602060405180830381865afa158015611f04573d6000803e3d6000fd5b505050506040513d601f19601f82011682018060405250810190611f2891906133ad565b81526020018e6001600160a01b03166347bd37186040518163ffffffff1660e01b8152600401602060405180830381865afa158015611f6b573d6000803e3d6000fd5b505050506040513d601f19601f82011682018060405250810190611f8f91906133ad565b81526020018e6001600160a01b0316638f840ddd6040518163ffffffff1660e01b8152600401602060405180830381865afa158015611fd2573d6000803e3d6000fd5b505050506040513d601f19601f82011682018060405250810190611ff691906133ad565b81526020018e6001600160a01b03166318160ddd6040518163ffffffff1660e01b8152600401602060405180830381865afa158015612039573d6000803e3d6000fd5b505050506040513d601f19601f8201168201806040525081019061205d91906133ad565b81526020018e6001600160a01b0316633b1d21a26040518163ffffffff1660e01b8152600401602060405180830381865afa1580156120a0573d6000803e3d6000fd5b505050506040513d601f19601f820116820180604052508101906120c491906133ad565b81526020018a15158152602001898152602001886001600160a01b031681526020018e6001600160a01b031663313ce5676040518163ffffffff1660e01b8152600401602060405180830381865afa158015612124573d6000803e3d6000fd5b505050506040513d601f19601f82011682018060405250810190612148919061381a565b60ff168152602001878152602001868152602001858152602001848152509b505050505050505050505050919050565b6000806121858486613882565b905082858210156111de5760405162461bcd60e51b81526004016121a99190613895565b60405180910390fd5b600081848411156121d65760405162461bcd60e51b81526004016121a99190613895565b5060006121e384866138a8565b95945050505050565b6000816040516020016121ff9190613866565b60405160208183030381529060405280519060200120836040516020016122269190613866565b6040516020818303038152906040528051906020012014905092915050565b60405163013cf08b60e01b8152600481018290526000906001600160a01b0384169063013cf08b9060240161014060405180830381865afa15801561228e573d6000803e3d6000fd5b505050506040513d601f19601f820116820180604052508101906122b291906138bb565b918452506020808201516001600160a01b03169084015260408082015190840152606081015160e08085019190915260808201516101008086019190915260a08301516101208087019190915260c0840151610140870152918301516101608601528201511515610180850152015115156101a09092019190915250565b600080600080600080600080896001600160a01b031663013cf08b8a6040518263ffffffff1660e01b815260040161236a91815260200190565b61012060405180830381865afa158015612388573d6000803e3d6000fd5b505050506040513d601f19601f820116820180604052508101906123ac9190613952565b9850985098509850985098509850985050888b6000018181525050878b602001906001600160a01b031690816001600160a01b031681525050868b6040018181525050858b60e0018181525050848b610100018181525050838b610120018181525050828b610140018181525050818b610160019015159081151581525050808b6101800190151590811515815250505050505050505050505050565b60008060008080866001600160a01b031663bda19a9d60e01b8760405160200161248291906001600160a01b0391909116815260200190565b60408051601f19818403018152908290526124a09291602001613835565b60408051601f19818403018152908290526124ba91613866565b6000604051808303816000865af19150503d80600081146124f7576040519150601f19603f3d011682016040523d82523d6000602084013e6124fc565b606091505b5091509150811561251e578080602001905181019061251b91906133ad565b92505b604080516001600160a01b038881166020830152600092839283928c1691633c08d43160e21b910160408051601f19818403018152908290526125649291602001613835565b60408051601f198184030181529082905261257e91613866565b6000604051808303816000865af19150503d80600081146125bb576040519150601f19603f3d011682016040523d82523d6000602084013e6125c0565b606091505b509150915081156125e257808060200190518101906125df91906133ad565b92505b8415806125ed575081155b156126bb57604080516001600160a01b038b811660208301526000928392918e16916321a89c5560e01b910160408051601f19818403018152908290526126379291602001613835565b60408051601f198184030181529082905261265191613866565b6000604051808303816000865af19150503d806000811461268e576040519150601f19603f3d011682016040523d82523d6000602084013e612693565b606091505b509150915081156126b857808060200190518101906126b291906133ad565b94508497505b50505b5093955093505050505b9250929050565b6040518060c0016040528060006001600160a01b0316815260200160008152602001600081526020016000815260200160008152602001600081525090565b60405180610220016040528060006001600160a01b0316815260200160008152602001600081526020016000815260200160008152602001600081526020016000815260200160008152602001600081526020016000151581526020016000815260200160006001600160a01b0316815260200160008152602001600081526020016000815260200160008152602001600081525090565b60008083601f8401126127b557600080fd5b5081356001600160401b038111156127cc57600080fd5b6020830191508360208260051b85010111156126c557600080fd5b6001600160a01b03811681146127fc57600080fd5b50565b60008060006040848603121561281457600080fd5b83356001600160401b0381111561282a57600080fd5b612836868287016127a3565b909450925050602084013561284a816127e7565b809150509250925092565b80516001600160a01b031682526020808201519083015260408082015190830152606080820151908301526080808201519083015260a090810151910152565b6020808252825182820181905260009190848201906040850190845b818110156128d7576128c4838551612855565b9284019260c092909201916001016128b1565b50909695505050505050565b600080600080606085870312156128f957600080fd5b8435612904816127e7565b93506020850135612914816127e7565b925060408501356001600160401b0381111561292f57600080fd5b61293b878288016127a3565b95989497509550505050565b602080825282518282018190526000919060409081850190868401855b8281101561298957815180518552860151868501529284019290850190600101612964565b5091979650505050505050565b634e487b7160e01b600052604160045260246000fd5b604051606081016001600160401b03811182821017156129ce576129ce612996565b60405290565b60405161014081016001600160401b03811182821017156129ce576129ce612996565b604051601f8201601f191681016001600160401b0381118282101715612a1f57612a1f612996565b604052919050565b60006001600160401b03821115612a4057612a40612996565b5060051b60200190565b600082601f830112612a5b57600080fd5b81356020612a70612a6b83612a27565b6129f7565b82815260059290921b84018101918181019086841115612a8f57600080fd5b8286015b84811015612aaa5780358352918301918301612a93565b509695505050505050565b600080600060608486031215612aca57600080fd5b8335612ad5816127e7565b92506020840135612ae5816127e7565b915060408401356001600160401b03811115612b0057600080fd5b612b0c86828701612a4a565b9150509250925092565b602080825282518282018190526000919060409081850190868401855b8281101561298957815180518552868101511515878601528581015160ff16868601526060908101516001600160601b03169085015260809093019290850190600101612b33565b600060208284031215612b8d57600080fd5b81356103cd816127e7565b81516001600160a01b031681526020808301519082015260408101610a19565b60008060408385031215612bcb57600080fd5b8235612bd6816127e7565b91506020830135612be6816127e7565b809150509250929050565b600080600060608486031215612c0657600080fd5b8335612c11816127e7565b92506020840135612c21816127e7565b9150604084013561284a816127e7565b60c08101610a198284612855565b60008060208385031215612c5257600080fd5b82356001600160401b03811115612c6857600080fd5b612c74858286016127a3565b90969095509350505050565b602080825282518282018190526000919060409081850190868401855b8281101561298957612cc384835180516001600160a01b03168252602090810151910152565b9284019290850190600101612c9d565b600080600060408486031215612ce857600080fd5b8335612cf3816127e7565b925060208401356001600160401b03811115612d0e57600080fd5b612d1a868287016127a3565b9497909650939450505050565b600081518084526020808501945080840160005b83811015612d605781516001600160a01b031687529582019590820190600101612d3b565b509495945050505050565b600081518084526020808501945080840160005b83811015612d6057815187529582019590820190600101612d7f565b60005b83811015612db6578181015183820152602001612d9e565b50506000910152565b60008151808452612dd7816020860160208601612d9b565b601f01601f19169290920160200192915050565b600081518084526020808501808196508360051b8101915082860160005b85811015612989578284038952612e21848351612dbf565b98850198935090840190600101612e09565b60006020808301818452808551808352604092508286019150828160051b87010184880160005b83811015612f5f57888303603f19018552815180518452878101516001600160a01b038116898601526101c0905087820151888601526060808301518282880152612ea783880182612d27565b9250505060808083015186830382880152612ec28382612d6b565b9250505060a08083015186830382880152612edd8382612deb565b9250505060c08083015186830382880152612ef88382612deb565b60e085810151908901526101008086015190890152610120808601519089015261014080860151908901526101608086015190890152610180808601511515908901526101a094850151151594909701939093525050509386019390860190600101612e5a565b509098975050505050505050565b6020808252825160608383015280516080840181905260009291820190839060a08601905b80831015612fbb5783516001600160a01b03168252928401926001929092019190840190612f92565b50838701516040870152604087015160608701528094505050505092915050565b80516001600160a01b031682526020810151602083015260408101516040830152606081015160608301526080810151608083015260a081015160a083015260c081015160c083015260e081015160e08301526101008082015181840152506101208082015161304f8285018215159052565b50506101408181015190830152610160808201516001600160a01b03169083015261018080820151908301526101a080820151908301526101c080820151908301526101e0808201519083015261020090810151910152565b6020808252825182820181905260009190848201906040850190845b818110156128d7576130d7838551612fdc565b9284019261022092909201916001016130c4565b60006020808301818452808551808352604092508286019150828160051b87010184880160005b83811015612f5f57888303603f19018552815180518452878101516001600160a01b038116898601526101a090508782015188860152606080830151828288015261315f83880182612d27565b925050506080808301518683038288015261317a8382612d6b565b9250505060a080830151868303828801526131958382612deb565b9250505060c080830151868303828801526131b08382612deb565b60e085810151908901526101008086015190890152610120808601519089015261014080860151908901526101608086015115159089015261018094850151151594909701939093525050509386019390860190600101613112565b602080825282518282018190526000919060409081850190868401855b828110156129895781518051855286810151151587860152858101511515868601526060908101516001600160601b03169085015260809093019290850190600101613229565b6102208101610a198284612fdc565b634e487b7160e01b600052603260045260246000fd5b634e487b7160e01b600052601160045260246000fd5b6000600182016132bd576132bd613295565b5060010190565b6000602082840312156132d657600080fd5b813563ffffffff811681146103cd57600080fd5b80516001600160601b038116811461330157600080fd5b919050565b60006020828403121561331857600080fd5b6103cd826132ea565b8051801515811461330157600080fd5b805160ff8116811461330157600080fd5b60006060828403121561335457600080fd5b61335c6129ac565b61336583613321565b815261337360208401613331565b6020820152613384604084016132ea565b60408201529392505050565b6000602082840312156133a257600080fd5b81516103cd816127e7565b6000602082840312156133bf57600080fd5b5051919050565b8051613301816127e7565b60006001600160401b038311156133ea576133ea612996565b6133fd601f8401601f19166020016129f7565b905082815283838301111561341157600080fd5b6103cd836020830184612d9b565b600082601f83011261343057600080fd5b6103cd838351602085016133d1565b60006020828403121561345157600080fd5b81516001600160401b0381111561346757600080fd5b6134738482850161341f565b949350505050565b600082601f83011261348c57600080fd5b8151602061349c612a6b83612a27565b82815260059290921b840181019181810190868411156134bb57600080fd5b8286015b84811015612aaa57805183529183019183016134bf565b600082601f8301126134e757600080fd5b815160206134f7612a6b83612a27565b82815260059290921b8401810191818101908684111561351657600080fd5b8286015b84811015612aaa5780516001600160401b038111156135395760008081fd5b6135478986838b010161341f565b84525091830191830161351a565b600082601f83011261356657600080fd5b81516020613576612a6b83612a27565b82815260059290921b8401810191818101908684111561359557600080fd5b8286015b84811015612aaa5780516001600160401b038111156135b85760008081fd5b8701603f810189136135ca5760008081fd5b6135db8986830151604084016133d1565b845250918301918301613599565b600080600080608085870312156135ff57600080fd5b84516001600160401b038082111561361657600080fd5b818701915087601f83011261362a57600080fd5b8151602061363a612a6b83612a27565b82815260059290921b8401810191818101908b84111561365957600080fd5b948201945b83861015613680578551613671816127e7565b8252948201949082019061365e565b918a015191985090935050508082111561369957600080fd5b6136a58883890161347b565b945060408701519150808211156136bb57600080fd5b6136c7888389016134d6565b935060608701519150808211156136dd57600080fd5b506136ea87828801613555565b91505092959194509250565b60008060006060848603121561370b57600080fd5b8351925060208401519150604084015190509250925092565b6000602080838503121561373757600080fd5b82516001600160401b0381111561374d57600080fd5b8301601f8101851361375e57600080fd5b805161376c612a6b82612a27565b81815260059190911b8201830190838101908783111561378b57600080fd5b928401925b828410156137b25783516137a3816127e7565b82529284019290840190613790565b979650505050505050565b6000606082840312156137cf57600080fd5b6137d76129ac565b6137e083613321565b815261337360208401613321565b6000806040838503121561380157600080fd5b61380a83613321565b9150602083015190509250929050565b60006020828403121561382c57600080fd5b6103cd82613331565b6001600160e01b0319831681528151600090613858816004850160208701612d9b565b919091016004019392505050565b60008251613878818460208701612d9b565b9190910192915050565b80820180821115610a1957610a19613295565b6020815260006103cd6020830184612dbf565b81810381811115610a1957610a19613295565b600061014082840312156138ce57600080fd5b6138d66129d4565b825181526138e6602084016133c6565b602082015260408301516040820152606083015160608201526080830151608082015260a083015160a082015260c083015160c082015260e083015160e0820152610100613935818501613321565b90820152610120613947848201613321565b908201529392505050565b60008060008060008060008060006101208a8c03121561397157600080fd5b8951985060208a0151613983816127e7565b8098505060408a0151965060608a0151955060808a0151945060a08a0151935060c08a015192506139b660e08b01613321565b91506139c56101008b01613321565b9050929598509295985092959856fea26469706673582212207531877fa1f763d94dd9f886a0dea0e6ab338b01aabb7e037b81c71eb23959d164736f6c63430008140033",
  "libraries": {},
  "devdoc": {
    "kind": "dev",
    "methods": {},
    "version": 1
  },
  "userdoc": {
    "kind": "user",
    "methods": {},
    "version": 1
  },
  "storageLayout": {
    "storage": [],
    "types": null
  }
}